{
  "contractName": "CampaignContract",
  "abi": [
    {
      "inputs": [],
      "payable": false,
      "stateMutability": "nonpayable",
      "type": "constructor"
    },
    {
      "anonymous": false,
      "inputs": [
        {
          "indexed": false,
          "internalType": "bytes32",
          "name": "id",
          "type": "bytes32"
        },
        {
          "indexed": false,
          "internalType": "address",
          "name": "targetAddress",
          "type": "address"
        },
        {
          "indexed": false,
          "internalType": "string",
          "name": "name",
          "type": "string"
        }
      ],
      "name": "AddCampaign",
      "type": "event"
    },
    {
      "anonymous": false,
      "inputs": [
        {
          "indexed": false,
          "internalType": "bytes32",
          "name": "campaignId",
          "type": "bytes32"
        },
        {
          "indexed": false,
          "internalType": "bytes32",
          "name": "productId",
          "type": "bytes32"
        },
        {
          "indexed": false,
          "internalType": "uint8",
          "name": "step",
          "type": "uint8"
        }
      ],
      "name": "CreateInvoice",
      "type": "event"
    },
    {
      "anonymous": false,
      "inputs": [
        {
          "indexed": false,
          "internalType": "bytes32",
          "name": "campaignId",
          "type": "bytes32"
        },
        {
          "indexed": false,
          "internalType": "address",
          "name": "donor",
          "type": "address"
        },
        {
          "indexed": false,
          "internalType": "uint256",
          "name": "amount",
          "type": "uint256"
        }
      ],
      "name": "DoDonate",
      "type": "event"
    },
    {
      "anonymous": false,
      "inputs": [
        {
          "indexed": false,
          "internalType": "bytes32",
          "name": "campaignId",
          "type": "bytes32"
        },
        {
          "indexed": false,
          "internalType": "bytes32",
          "name": "productId",
          "type": "bytes32"
        },
        {
          "indexed": false,
          "internalType": "uint8",
          "name": "step",
          "type": "uint8"
        }
      ],
      "name": "DoWithdrawal",
      "type": "event"
    },
    {
      "anonymous": false,
      "inputs": [
        {
          "indexed": true,
          "internalType": "address",
          "name": "previousOwner",
          "type": "address"
        },
        {
          "indexed": true,
          "internalType": "address",
          "name": "newOwner",
          "type": "address"
        }
      ],
      "name": "OwnershipTransferred",
      "type": "event"
    },
    {
      "anonymous": false,
      "inputs": [
        {
          "indexed": false,
          "internalType": "bytes32",
          "name": "campaignId",
          "type": "bytes32"
        },
        {
          "indexed": false,
          "internalType": "address",
          "name": "donor",
          "type": "address"
        },
        {
          "indexed": false,
          "internalType": "uint256",
          "name": "amount",
          "type": "uint256"
        }
      ],
      "name": "Refund",
      "type": "event"
    },
    {
      "anonymous": false,
      "inputs": [
        {
          "indexed": false,
          "internalType": "bytes32",
          "name": "campaignId",
          "type": "bytes32"
        },
        {
          "indexed": false,
          "internalType": "bytes32",
          "name": "productId",
          "type": "bytes32"
        },
        {
          "indexed": false,
          "internalType": "uint8",
          "name": "step",
          "type": "uint8"
        }
      ],
      "name": "Submit",
      "type": "event"
    },
    {
      "constant": true,
      "inputs": [],
      "name": "isOwner",
      "outputs": [
        {
          "internalType": "bool",
          "name": "",
          "type": "bool"
        }
      ],
      "payable": false,
      "stateMutability": "view",
      "type": "function"
    },
    {
      "constant": true,
      "inputs": [],
      "name": "owner",
      "outputs": [
        {
          "internalType": "address",
          "name": "",
          "type": "address"
        }
      ],
      "payable": false,
      "stateMutability": "view",
      "type": "function"
    },
    {
      "constant": true,
      "inputs": [],
      "name": "productContract",
      "outputs": [
        {
          "internalType": "contract ProductContract",
          "name": "",
          "type": "address"
        }
      ],
      "payable": false,
      "stateMutability": "view",
      "type": "function"
    },
    {
      "constant": false,
      "inputs": [],
      "name": "renounceOwnership",
      "outputs": [],
      "payable": false,
      "stateMutability": "nonpayable",
      "type": "function"
    },
    {
      "constant": true,
      "inputs": [],
      "name": "targetContract",
      "outputs": [
        {
          "internalType": "contract TargetContract",
          "name": "",
          "type": "address"
        }
      ],
      "payable": false,
      "stateMutability": "view",
      "type": "function"
    },
    {
      "constant": false,
      "inputs": [
        {
          "internalType": "address",
          "name": "newOwner",
          "type": "address"
        }
      ],
      "name": "transferOwnership",
      "outputs": [],
      "payable": false,
      "stateMutability": "nonpayable",
      "type": "function"
    },
    {
      "constant": false,
      "inputs": [
        {
          "internalType": "address",
          "name": "_targetAddress",
          "type": "address"
        },
        {
          "internalType": "string",
          "name": "_name",
          "type": "string"
        },
        {
          "internalType": "string",
          "name": "_thumbnail",
          "type": "string"
        },
        {
          "internalType": "uint256",
          "name": "_cap",
          "type": "uint256"
        },
        {
          "internalType": "uint256",
          "name": "_startTime",
          "type": "uint256"
        },
        {
          "internalType": "uint256",
          "name": "_endTime",
          "type": "uint256"
        },
        {
          "internalType": "string",
          "name": "_contents",
          "type": "string"
        },
        {
          "internalType": "bytes32[]",
          "name": "_productIdList",
          "type": "bytes32[]"
        }
      ],
      "name": "addCampaign",
      "outputs": [],
      "payable": false,
      "stateMutability": "nonpayable",
      "type": "function"
    },
    {
      "constant": true,
      "inputs": [],
      "name": "getCampaignList",
      "outputs": [
        {
          "components": [
            {
              "internalType": "bytes32",
              "name": "id",
              "type": "bytes32"
            },
            {
              "internalType": "string",
              "name": "name",
              "type": "string"
            },
            {
              "internalType": "string",
              "name": "thumbnail",
              "type": "string"
            },
            {
              "internalType": "uint256",
              "name": "cap",
              "type": "uint256"
            },
            {
              "internalType": "uint256",
              "name": "totalAmount",
              "type": "uint256"
            },
            {
              "internalType": "uint256",
              "name": "startTime",
              "type": "uint256"
            },
            {
              "internalType": "uint256",
              "name": "endTime",
              "type": "uint256"
            },
            {
              "internalType": "string",
              "name": "contents",
              "type": "string"
            },
            {
              "internalType": "address",
              "name": "targetAddress",
              "type": "address"
            },
            {
              "internalType": "bytes32[]",
              "name": "productIdList",
              "type": "bytes32[]"
            },
            {
              "internalType": "address[]",
              "name": "donorAddressList",
              "type": "address[]"
            }
          ],
          "internalType": "struct CampaignContract.Campaign[]",
          "name": "",
          "type": "tuple[]"
        }
      ],
      "payable": false,
      "stateMutability": "view",
      "type": "function"
    },
    {
      "constant": true,
      "inputs": [
        {
          "internalType": "bytes32",
          "name": "_id",
          "type": "bytes32"
        }
      ],
      "name": "getCampaign",
      "outputs": [
        {
          "components": [
            {
              "internalType": "bytes32",
              "name": "id",
              "type": "bytes32"
            },
            {
              "internalType": "string",
              "name": "name",
              "type": "string"
            },
            {
              "internalType": "string",
              "name": "thumbnail",
              "type": "string"
            },
            {
              "internalType": "uint256",
              "name": "cap",
              "type": "uint256"
            },
            {
              "internalType": "uint256",
              "name": "totalAmount",
              "type": "uint256"
            },
            {
              "internalType": "uint256",
              "name": "startTime",
              "type": "uint256"
            },
            {
              "internalType": "uint256",
              "name": "endTime",
              "type": "uint256"
            },
            {
              "internalType": "string",
              "name": "contents",
              "type": "string"
            },
            {
              "internalType": "address",
              "name": "targetAddress",
              "type": "address"
            },
            {
              "internalType": "bytes32[]",
              "name": "productIdList",
              "type": "bytes32[]"
            },
            {
              "internalType": "address[]",
              "name": "donorAddressList",
              "type": "address[]"
            }
          ],
          "internalType": "struct CampaignContract.Campaign",
          "name": "",
          "type": "tuple"
        }
      ],
      "payable": false,
      "stateMutability": "view",
      "type": "function"
    },
    {
      "constant": false,
      "inputs": [
        {
          "internalType": "bytes32",
          "name": "campaignId",
          "type": "bytes32"
        }
      ],
      "name": "donate",
      "outputs": [],
      "payable": true,
      "stateMutability": "payable",
      "type": "function"
    },
    {
      "constant": false,
      "inputs": [
        {
          "internalType": "bytes32",
          "name": "campaignId",
          "type": "bytes32"
        }
      ],
      "name": "refund",
      "outputs": [],
      "payable": false,
      "stateMutability": "nonpayable",
      "type": "function"
    },
    {
      "constant": false,
      "inputs": [
        {
          "internalType": "bytes32",
          "name": "campaignId",
          "type": "bytes32"
        },
        {
          "internalType": "bytes32",
          "name": "productId",
          "type": "bytes32"
        }
      ],
      "name": "createInvoice",
      "outputs": [],
      "payable": false,
      "stateMutability": "nonpayable",
      "type": "function"
    },
    {
      "constant": true,
      "inputs": [
        {
          "internalType": "bytes32",
          "name": "campaignId",
          "type": "bytes32"
        },
        {
          "internalType": "bytes32",
          "name": "productId",
          "type": "bytes32"
        }
      ],
      "name": "getInvoiceStepByCampaign",
      "outputs": [
        {
          "internalType": "uint8",
          "name": "",
          "type": "uint8"
        }
      ],
      "payable": false,
      "stateMutability": "view",
      "type": "function"
    },
    {
      "constant": false,
      "inputs": [
        {
          "internalType": "bytes32",
          "name": "campaignId",
          "type": "bytes32"
        },
        {
          "internalType": "bytes32",
          "name": "productId",
          "type": "bytes32"
        },
        {
          "internalType": "uint8",
          "name": "_v",
          "type": "uint8"
        },
        {
          "internalType": "bytes32",
          "name": "_r",
          "type": "bytes32"
        },
        {
          "internalType": "bytes32",
          "name": "_s",
          "type": "bytes32"
        }
      ],
      "name": "submitReceipt",
      "outputs": [],
      "payable": false,
      "stateMutability": "nonpayable",
      "type": "function"
    },
    {
      "constant": false,
      "inputs": [
        {
          "internalType": "bytes32",
          "name": "campaignId",
          "type": "bytes32"
        },
        {
          "internalType": "bytes32",
          "name": "productId",
          "type": "bytes32"
        }
      ],
      "name": "withdrawal",
      "outputs": [],
      "payable": false,
      "stateMutability": "nonpayable",
      "type": "function"
    }
  ],
  "bytecode": "0x60806040523480156200001157600080fd5b5060006200002d62000256640100000000026401000000009004565b9050806000806101000a81548173ffffffffffffffffffffffffffffffffffffffff021916908373ffffffffffffffffffffffffffffffffffffffff1602179055508073ffffffffffffffffffffffffffffffffffffffff16600073ffffffffffffffffffffffffffffffffffffffff167f8be0079c531659141344cd1fd0a4f28419497f9722a3daafe3b4186f6b6457e060405160405180910390a350604051620000d9906200025e565b604051809103906000f080158015620000f6573d6000803e3d6000fd5b50600160006101000a81548173ffffffffffffffffffffffffffffffffffffffff021916908373ffffffffffffffffffffffffffffffffffffffff16021790555060405162000145906200026c565b604051809103906000f08015801562000162573d6000803e3d6000fd5b50600260006101000a81548173ffffffffffffffffffffffffffffffffffffffff021916908373ffffffffffffffffffffffffffffffffffffffff160217905550600260009054906101000a900473ffffffffffffffffffffffffffffffffffffffff1673ffffffffffffffffffffffffffffffffffffffff1663f2fde38b336040518263ffffffff167c01000000000000000000000000000000000000000000000000000000000281526004016200021c91906200028b565b600060405180830381600087803b1580156200023757600080fd5b505af11580156200024c573d6000803e3d6000fd5b5050505062000304565b600033905090565b6115c280620032d683390190565b611a89806200489883390190565b6200028581620002c8565b82525050565b6000602082019050620002a260008301846200027a565b92915050565b600073ffffffffffffffffffffffffffffffffffffffff82169050919050565b6000620002d582620002dc565b9050919050565b6000620002e982620002f0565b9050919050565b6000620002fd82620002a8565b9050919050565b612fc280620003146000396000f3fe608060405260043610610105576000357c0100000000000000000000000000000000000000000000000000000000900480638da5cb5b116100a7578063c37067fa11610076578063c37067fa146102d9578063cabe0452146102f5578063dfe4506f14610332578063f2fde38b1461035b57610105565b80638da5cb5b1461022f5780638f32d59b1461025a57806399bea74e14610285578063bd90df70146102ae57610105565b80632a28d4df116100e35780632a28d4df1461019b5780636060ceaa146101c6578063715018a6146101ef5780637249fbb61461020657610105565b80630410b0b31461010a57806314b5d346146101355780631e62803a14610172575b600080fd5b34801561011657600080fd5b5061011f610384565b60405161012c9190612943565b60405180910390f35b34801561014157600080fd5b5061015c6004803603610157919081019061210b565b6107a0565b6040516101699190612b92565b60405180910390f35b34801561017e57600080fd5b506101996004803603610194919081019061210b565b6107e4565b005b3480156101a757600080fd5b506101b0610a04565b6040516101bd9190612afa565b60405180910390f35b3480156101d257600080fd5b506101ed60048036036101e8919081019061210b565b610a2a565b005b3480156101fb57600080fd5b50610204610afb565b005b34801561021257600080fd5b5061022d600480360361022891908101906120e2565b610c01565b005b34801561023b57600080fd5b50610244610db6565b6040516102519190612928565b60405180910390f35b34801561026657600080fd5b5061026f610ddf565b60405161027c9190612965565b60405180910390f35b34801561029157600080fd5b506102ac60048036036102a79190810190612147565b610e3d565b005b3480156102ba57600080fd5b506102c3611119565b6040516102d09190612b15565b60405180910390f35b6102f360048036036102ee91908101906120e2565b61113f565b005b34801561030157600080fd5b5061031c600480360361031791908101906120e2565b61133b565b6040516103299190612b70565b60405180910390f35b34801561033e57600080fd5b5061035960048036036103549190810190611fd0565b6116bd565b005b34801561036757600080fd5b50610382600480360361037d9190810190611fa7565b61189c565b005b6060600060038054905090506060816040519080825280602002602001820160405280156103cc57816020015b6103b9611a25565b8152602001906001900390816103b15790505b50905060008090505b82811015610797576103e5611a98565b60046000600384815481106103f657fe5b906000526020600020015481526020019081526020016000206040518061016001604052908160008201548152602001600182018054600181600116156101000203166002900480601f0160208091040260200160405190810160405280929190818152602001828054600181600116156101000203166002900480156104be5780601f10610493576101008083540402835291602001916104be565b820191906000526020600020905b8154815290600101906020018083116104a157829003601f168201915b50505050508152602001600282018054600181600116156101000203166002900480601f0160208091040260200160405190810160405280929190818152602001828054600181600116156101000203166002900480156105605780601f1061053557610100808354040283529160200191610560565b820191906000526020600020905b81548152906001019060200180831161054357829003601f168201915b5050505050815260200160038201548152602001600482015481526020016005820154815260200160068201548152602001600782018054600181600116156101000203166002900480601f01602080910402602001604051908101604052809291908181526020018280546001816001161561010002031660029004801561062a5780601f106105ff5761010080835404028352916020019161062a565b820191906000526020600020905b81548152906001019060200180831161060d57829003601f168201915b505050505081526020016008820160009054906101000a900473ffffffffffffffffffffffffffffffffffffffff1673ffffffffffffffffffffffffffffffffffffffff1673ffffffffffffffffffffffffffffffffffffffff168152602001600982018054806020026020016040519081016040528092919081815260200182805480156106d857602002820191906000526020600020905b8154815260200190600101908083116106c4575b50505050508152602001600a820180548060200260200160405190810160405280929190818152602001828054801561076657602002820191906000526020600020905b8160009054906101000a900473ffffffffffffffffffffffffffffffffffffffff1673ffffffffffffffffffffffffffffffffffffffff168152602001906001019080831161071c575b50505050508152505090508083838151811061077e57fe5b60200260200101819052505080806001019150506103d5565b50809250505090565b60008060056000858152602001908152602001600020600084815260200190815260200160002090508060010160009054906101000a900460ff1691505092915050565b600060056000848152602001908152602001600020600083815260200190815260200160002090506000816000015490506000600102811415801561083d575060028260010160009054906101000a900460ff1660ff16145b61084657600080fd5b61084e611b0b565b600160009054906101000a900473ffffffffffffffffffffffffffffffffffffffff1673ffffffffffffffffffffffffffffffffffffffff16633a20e9df836040518263ffffffff167c01000000000000000000000000000000000000000000000000000000000281526004016108c59190612980565b60006040518083038186803b1580156108dd57600080fd5b505afa1580156108f1573d6000803e3d6000fd5b505050506040513d6000823e3d601f19601f8201168201806040525061091a91908101906121be565b90503373ffffffffffffffffffffffffffffffffffffffff16816020015173ffffffffffffffffffffffffffffffffffffffff161461095857600080fd5b3373ffffffffffffffffffffffffffffffffffffffff166108fc82608001519081150290604051600060405180830381858888f193505050501580156109a2573d6000803e3d6000fd5b5060038360010160006101000a81548160ff021916908360ff1602179055507f9e065bb131564c3deba9df32c73ed7d8222c14c66450ebc59a14463205eccf1f858560036040516109f593929190612a7e565b60405180910390a15050505050565b600160009054906101000a900473ffffffffffffffffffffffffffffffffffffffff1681565b6000600460008481526020019081526020016000209050600060010281600001541415610a5657600080fd5b600060056000858152602001908152602001600020600084815260200190815260200160002090506000600102816000015414610a9257600080fd5b82816000018190555060018160010160006101000a81548160ff021916908360ff1602179055507f088a88e4eb1e374d34c117e1a6a7297ce10b03a38f21c2662a31b00c62c3709f84846001604051610aed93929190612a10565b60405180910390a150505050565b610b03610ddf565b610b42576040517f08c379a0000000000000000000000000000000000000000000000000000000008152600401610b3990612b50565b60405180910390fd5b600073ffffffffffffffffffffffffffffffffffffffff166000809054906101000a900473ffffffffffffffffffffffffffffffffffffffff1673ffffffffffffffffffffffffffffffffffffffff167f8be0079c531659141344cd1fd0a4f28419497f9722a3daafe3b4186f6b6457e060405160405180910390a360008060006101000a81548173ffffffffffffffffffffffffffffffffffffffff021916908373ffffffffffffffffffffffffffffffffffffffff160217905550565b6000600460008381526020019081526020016000209050600060010281600001541415610c2d57600080fd5b8060040154816003015411610c4157600080fd5b80600601544211610c5157600080fd5b60006006600084815260200190815260200160002060003373ffffffffffffffffffffffffffffffffffffffff1673ffffffffffffffffffffffffffffffffffffffff16815260200190815260200160002090506000818054905011610cb657600080fd5b60008090505b8180549050811015610db0576000828281548110610cd657fe5b90600052602060002090600302016001015490503373ffffffffffffffffffffffffffffffffffffffff166108fc829081150290604051600060405180830381858888f19350505050158015610d30573d6000803e3d6000fd5b506001838381548110610d3f57fe5b906000526020600020906003020160020160006101000a81548160ff0219169083151502179055507f668cb0582f35d8cc1e62959951f2b36e581df3c31a96a7ff714883facb8fef07853383604051610d9a9392919061299b565b60405180910390a1508080600101915050610cbc565b50505050565b60008060009054906101000a900473ffffffffffffffffffffffffffffffffffffffff16905090565b60008060009054906101000a900473ffffffffffffffffffffffffffffffffffffffff1673ffffffffffffffffffffffffffffffffffffffff16610e216118ef565b73ffffffffffffffffffffffffffffffffffffffff1614905090565b3373ffffffffffffffffffffffffffffffffffffffff166004600087815260200190815260200160002060080160009054906101000a900473ffffffffffffffffffffffffffffffffffffffff1673ffffffffffffffffffffffffffffffffffffffff1614610eab57600080fd5b6000600560008781526020019081526020016000206000868152602001908152602001600020905060018160010160009054906101000a900460ff1660ff1614610ef457600080fd5b6000868633604051602001610f0b93929190612881565b604051602081830303815290604052805190602001209050600081604051602001610f3691906128be565b604051602081830303815290604052805190602001209050600060018288888860405160008152602001604052604051610f739493929190612ab5565b6020604051602081039080840390855afa158015610f95573d6000803e3d6000fd5b505050602060405103519050610fa9611b0b565b600160009054906101000a900473ffffffffffffffffffffffffffffffffffffffff1673ffffffffffffffffffffffffffffffffffffffff16633a20e9df8a6040518263ffffffff167c01000000000000000000000000000000000000000000000000000000000281526004016110209190612980565b60006040518083038186803b15801561103857600080fd5b505afa15801561104c573d6000803e3d6000fd5b505050506040513d6000823e3d601f19601f8201168201806040525061107591908101906121be565b90508173ffffffffffffffffffffffffffffffffffffffff16816020015173ffffffffffffffffffffffffffffffffffffffff16146110b357600080fd5b60028560010160006101000a81548160ff021916908360ff1602179055507f55d72d53c36354af67c5f271cb0017d586b805e384d8972ede7103ec37e6b31b8a8a600260405161110593929190612a47565b60405180910390a150505050505050505050565b600260009054906101000a900473ffffffffffffffffffffffffffffffffffffffff1681565b600060046000838152602001908152602001600020905060006001028160000154141561116b57600080fd5b348160040154018160030154101561118257600080fd5b8060050154421015801561119a575080600601544211155b6111a357600080fd5b60006006600084815260200190815260200160002060003373ffffffffffffffffffffffffffffffffffffffff1673ffffffffffffffffffffffffffffffffffffffff16815260200190815260200160002090506001818181805490500191508161120e9190611b5a565b5060008160018380549050038154811061122457fe5b90600052602060002090600302019050338160000160006101000a81548173ffffffffffffffffffffffffffffffffffffffff021916908373ffffffffffffffffffffffffffffffffffffffff16021790555034816001018190555082600a013390806001815401808255809150509060018203906000526020600020016000909192909190916101000a81548173ffffffffffffffffffffffffffffffffffffffff021916908373ffffffffffffffffffffffffffffffffffffffff160217905550503483600401600082825401925050819055507f6c848141cdf4c98ca95747650ddb3f42deb41a889df2d94fb19f7b8864553fd584333460405161132d9392919061299b565b60405180910390a150505050565b611343611a98565b600460008381526020019081526020016000206040518061016001604052908160008201548152602001600182018054600181600116156101000203166002900480601f0160208091040260200160405190810160405280929190818152602001828054600181600116156101000203166002900480156114055780601f106113da57610100808354040283529160200191611405565b820191906000526020600020905b8154815290600101906020018083116113e857829003601f168201915b50505050508152602001600282018054600181600116156101000203166002900480601f0160208091040260200160405190810160405280929190818152602001828054600181600116156101000203166002900480156114a75780601f1061147c576101008083540402835291602001916114a7565b820191906000526020600020905b81548152906001019060200180831161148a57829003601f168201915b5050505050815260200160038201548152602001600482015481526020016005820154815260200160068201548152602001600782018054600181600116156101000203166002900480601f0160208091040260200160405190810160405280929190818152602001828054600181600116156101000203166002900480156115715780601f1061154657610100808354040283529160200191611571565b820191906000526020600020905b81548152906001019060200180831161155457829003601f168201915b505050505081526020016008820160009054906101000a900473ffffffffffffffffffffffffffffffffffffffff1673ffffffffffffffffffffffffffffffffffffffff1673ffffffffffffffffffffffffffffffffffffffff1681526020016009820180548060200260200160405190810160405280929190818152602001828054801561161f57602002820191906000526020600020905b81548152602001906001019080831161160b575b50505050508152602001600a82018054806020026020016040519081016040528092919081815260200182805480156116ad57602002820191906000526020600020905b8160009054906101000a900473ffffffffffffffffffffffffffffffffffffffff1673ffffffffffffffffffffffffffffffffffffffff1681526020019060010190808311611663575b5050505050815250509050919050565b6116c5610ddf565b611704576040517f08c379a00000000000000000000000000000000000000000000000000000000081526004016116fb90612b50565b60405180910390fd5b600042898960405160200161171b939291906128ef565b6040516020818303038152906040528051906020012090506000600460008381526020019081526020016000209050600060010281600001541461175e57600080fd5b8181600001819055508881600101908051906020019061177f929190611b8c565b5087816002019080519060200190611798929190611b8c565b50868160030181905550858160050181905550848160060181905550838160070190805190602001906117cc929190611b8c565b50898160080160006101000a81548173ffffffffffffffffffffffffffffffffffffffff021916908373ffffffffffffffffffffffffffffffffffffffff16021790555082816009019080519060200190611828929190611c0c565b5060038290806001815401808255809150509060018203906000526020600020016000909192909190915055507f44d7d5de442e355659a99627267b9f4e383b2d281d4836f403182786d000f2b7828b8b604051611888939291906129d2565b60405180910390a150505050505050505050565b6118a4610ddf565b6118e3576040517f08c379a00000000000000000000000000000000000000000000000000000000081526004016118da90612b50565b60405180910390fd5b6118ec816118f7565b50565b600033905090565b600073ffffffffffffffffffffffffffffffffffffffff168173ffffffffffffffffffffffffffffffffffffffff161415611967576040517f08c379a000000000000000000000000000000000000000000000000000000000815260040161195e90612b30565b60405180910390fd5b8073ffffffffffffffffffffffffffffffffffffffff166000809054906101000a900473ffffffffffffffffffffffffffffffffffffffff1673ffffffffffffffffffffffffffffffffffffffff167f8be0079c531659141344cd1fd0a4f28419497f9722a3daafe3b4186f6b6457e060405160405180910390a3806000806101000a81548173ffffffffffffffffffffffffffffffffffffffff021916908373ffffffffffffffffffffffffffffffffffffffff16021790555050565b6040518061016001604052806000801916815260200160608152602001606081526020016000815260200160008152602001600081526020016000815260200160608152602001600073ffffffffffffffffffffffffffffffffffffffff16815260200160608152602001606081525090565b6040518061016001604052806000801916815260200160608152602001606081526020016000815260200160008152602001600081526020016000815260200160608152602001600073ffffffffffffffffffffffffffffffffffffffff16815260200160608152602001606081525090565b6040518060c0016040528060008019168152602001600073ffffffffffffffffffffffffffffffffffffffff168152602001606081526020016060815260200160008152602001606081525090565b815481835581811115611b8757600302816003028360005260206000209182019101611b869190611c59565b5b505050565b828054600181600116156101000203166002900490600052602060002090601f016020900481019282601f10611bcd57805160ff1916838001178555611bfb565b82800160010185558215611bfb579182015b82811115611bfa578251825591602001919060010190611bdf565b5b509050611c089190611cbb565b5090565b828054828255906000526020600020908101928215611c48579160200282015b82811115611c47578251825591602001919060010190611c2c565b5b509050611c559190611ce0565b5090565b611cb891905b80821115611cb457600080820160006101000a81549073ffffffffffffffffffffffffffffffffffffffff021916905560018201600090556002820160006101000a81549060ff021916905550600301611c5f565b5090565b90565b611cdd91905b80821115611cd9576000816000905550600101611cc1565b5090565b90565b611d0291905b80821115611cfe576000816000905550600101611ce6565b5090565b90565b600081359050611d1481612f23565b92915050565b600081519050611d2981612f23565b92915050565b600082601f830112611d4057600080fd5b8135611d53611d4e82612bda565b612bad565b91508181835260208401935060208101905083856020840282011115611d7857600080fd5b60005b83811015611da85781611d8e8882611db2565b845260208401935060208301925050600181019050611d7b565b5050505092915050565b600081359050611dc181612f3a565b92915050565b600081519050611dd681612f3a565b92915050565b600082601f830112611ded57600080fd5b8151611e00611dfb82612c02565b612bad565b91508082526020830160208301858383011115611e1c57600080fd5b611e27838284612e7c565b50505092915050565b600082601f830112611e4157600080fd5b8135611e54611e4f82612c2e565b612bad565b91508082526020830160208301858383011115611e7057600080fd5b611e7b838284612e6d565b50505092915050565b600060c08284031215611e9657600080fd5b611ea060c0612bad565b90506000611eb084828501611dc7565b6000830152506020611ec484828501611d1a565b602083015250604082015167ffffffffffffffff811115611ee457600080fd5b611ef084828501611ddc565b604083015250606082015167ffffffffffffffff811115611f1057600080fd5b611f1c84828501611ddc565b6060830152506080611f3084828501611f7d565b60808301525060a082015167ffffffffffffffff811115611f5057600080fd5b611f5c84828501611ddc565b60a08301525092915050565b600081359050611f7781612f51565b92915050565b600081519050611f8c81612f51565b92915050565b600081359050611fa181612f68565b92915050565b600060208284031215611fb957600080fd5b6000611fc784828501611d05565b91505092915050565b600080600080600080600080610100898b031215611fed57600080fd5b6000611ffb8b828c01611d05565b985050602089013567ffffffffffffffff81111561201857600080fd5b6120248b828c01611e30565b975050604089013567ffffffffffffffff81111561204157600080fd5b61204d8b828c01611e30565b965050606061205e8b828c01611f68565b955050608061206f8b828c01611f68565b94505060a06120808b828c01611f68565b93505060c089013567ffffffffffffffff81111561209d57600080fd5b6120a98b828c01611e30565b92505060e089013567ffffffffffffffff8111156120c657600080fd5b6120d28b828c01611d2f565b9150509295985092959890939650565b6000602082840312156120f457600080fd5b600061210284828501611db2565b91505092915050565b6000806040838503121561211e57600080fd5b600061212c85828601611db2565b925050602061213d85828601611db2565b9150509250929050565b600080600080600060a0868803121561215f57600080fd5b600061216d88828901611db2565b955050602061217e88828901611db2565b945050604061218f88828901611f92565b93505060606121a088828901611db2565b92505060806121b188828901611db2565b9150509295509295909350565b6000602082840312156121d057600080fd5b600082015167ffffffffffffffff8111156121ea57600080fd5b6121f684828501611e84565b91505092915050565b600061220b8383612269565b60208301905092915050565b600061222383836123de565b60208301905092915050565b600061223b8383612732565b905092915050565b61224c81612db9565b82525050565b61226361225e82612d5a565b612ec1565b82525050565b61227281612d48565b82525050565b61228181612d48565b82525050565b61229861229382612d48565b612eaf565b82525050565b60006122a982612c8a565b6122b38185612ce8565b93506122be83612c5a565b8060005b838110156122ef5781516122d688826121ff565b97506122e183612cc1565b9250506001810190506122c2565b5085935050505092915050565b600061230782612c95565b6123118185612cf9565b935061231c83612c6a565b8060005b8381101561234d5781516123348882612217565b975061233f83612cce565b925050600181019050612320565b5085935050505092915050565b600061236582612ca0565b61236f8185612d0a565b93508360208202850161238185612c7a565b8060005b858110156123bd578484038952815161239e858261222f565b94506123a983612cdb565b925060208a01995050600181019050612385565b50829750879550505050505092915050565b6123d881612d6c565b82525050565b6123e781612d78565b82525050565b6123f681612d78565b82525050565b61240d61240882612d78565b612ed3565b82525050565b61241c81612dcb565b82525050565b61242b81612def565b82525050565b61243a81612e13565b82525050565b61244981612e25565b82525050565b61245881612e37565b82525050565b600061246982612cb6565b6124738185612d2c565b9350612483818560208601612e7c565b61248c81612ef9565b840191505092915050565b60006124a282612cb6565b6124ac8185612d3d565b93506124bc818560208601612e7c565b80840191505092915050565b60006124d382612cab565b6124dd8185612d1b565b93506124ed818560208601612e7c565b6124f681612ef9565b840191505092915050565b600061250e602683612d2c565b91507f4f776e61626c653a206e6577206f776e657220697320746865207a65726f206160008301527f64647265737300000000000000000000000000000000000000000000000000006020830152604082019050919050565b6000612574600283612d3d565b91507f33320000000000000000000000000000000000000000000000000000000000006000830152600282019050919050565b60006125b4602083612d2c565b91507f4f776e61626c653a2063616c6c6572206973206e6f7420746865206f776e65726000830152602082019050919050565b60006125f4601a83612d3d565b91507f19457468657265756d205369676e6564204d6573736167653a0a0000000000006000830152601a82019050919050565b60006101608301600083015161264060008601826123de565b506020830151848203602086015261265882826124c8565b9150506040830151848203604086015261267282826124c8565b9150506060830151612687606086018261283d565b50608083015161269a608086018261283d565b5060a08301516126ad60a086018261283d565b5060c08301516126c060c086018261283d565b5060e083015184820360e08601526126d882826124c8565b9150506101008301516126ef610100860182612269565b5061012083015184820361012086015261270982826122fc565b915050610140830151848203610140860152612725828261229e565b9150508091505092915050565b60006101608301600083015161274b60008601826123de565b506020830151848203602086015261276382826124c8565b9150506040830151848203604086015261277d82826124c8565b9150506060830151612792606086018261283d565b5060808301516127a5608086018261283d565b5060a08301516127b860a086018261283d565b5060c08301516127cb60c086018261283d565b5060e083015184820360e08601526127e382826124c8565b9150506101008301516127fa610100860182612269565b5061012083015184820361012086015261281482826122fc565b915050610140830151848203610140860152612830828261229e565b9150508091505092915050565b61284681612da2565b82525050565b61285581612da2565b82525050565b61286c61286782612da2565b612eef565b82525050565b61287b81612dac565b82525050565b600061288d82866123fc565b60208201915061289d82856123fc565b6020820191506128ad8284612252565b601482019150819050949350505050565b60006128c9826125e7565b91506128d482612567565b91506128e082846123fc565b60208201915081905092915050565b60006128fb828661285b565b60208201915061290b8285612287565b60148201915061291b8284612497565b9150819050949350505050565b600060208201905061293d6000830184612278565b92915050565b6000602082019050818103600083015261295d818461235a565b905092915050565b600060208201905061297a60008301846123cf565b92915050565b600060208201905061299560008301846123ed565b92915050565b60006060820190506129b060008301866123ed565b6129bd6020830185612243565b6129ca604083018461284c565b949350505050565b60006060820190506129e760008301866123ed565b6129f46020830185612278565b8181036040830152612a06818461245e565b9050949350505050565b6000606082019050612a2560008301866123ed565b612a3260208301856123ed565b612a3f6040830184612431565b949350505050565b6000606082019050612a5c60008301866123ed565b612a6960208301856123ed565b612a766040830184612440565b949350505050565b6000606082019050612a9360008301866123ed565b612aa060208301856123ed565b612aad604083018461244f565b949350505050565b6000608082019050612aca60008301876123ed565b612ad76020830186612872565b612ae460408301856123ed565b612af160608301846123ed565b95945050505050565b6000602082019050612b0f6000830184612413565b92915050565b6000602082019050612b2a6000830184612422565b92915050565b60006020820190508181036000830152612b4981612501565b9050919050565b60006020820190508181036000830152612b69816125a7565b9050919050565b60006020820190508181036000830152612b8a8184612627565b905092915050565b6000602082019050612ba76000830184612872565b92915050565b6000604051905081810181811067ffffffffffffffff82111715612bd057600080fd5b8060405250919050565b600067ffffffffffffffff821115612bf157600080fd5b602082029050602081019050919050565b600067ffffffffffffffff821115612c1957600080fd5b601f19601f8301169050602081019050919050565b600067ffffffffffffffff821115612c4557600080fd5b601f19601f8301169050602081019050919050565b6000819050602082019050919050565b6000819050602082019050919050565b6000819050602082019050919050565b600081519050919050565b600081519050919050565b600081519050919050565b600081519050919050565b600081519050919050565b6000602082019050919050565b6000602082019050919050565b6000602082019050919050565b600082825260208201905092915050565b600082825260208201905092915050565b600082825260208201905092915050565b600082825260208201905092915050565b600082825260208201905092915050565b600081905092915050565b6000612d5382612d82565b9050919050565b6000612d6582612d82565b9050919050565b60008115159050919050565b6000819050919050565b600073ffffffffffffffffffffffffffffffffffffffff82169050919050565b6000819050919050565b600060ff82169050919050565b6000612dc482612e49565b9050919050565b6000612dd682612ddd565b9050919050565b6000612de882612d82565b9050919050565b6000612dfa82612e01565b9050919050565b6000612e0c82612d82565b9050919050565b6000612e1e82612dac565b9050919050565b6000612e3082612dac565b9050919050565b6000612e4282612dac565b9050919050565b6000612e5482612e5b565b9050919050565b6000612e6682612d82565b9050919050565b82818337600083830152505050565b60005b83811015612e9a578082015181840152602081019050612e7f565b83811115612ea9576000848401525b50505050565b6000612eba82612edd565b9050919050565b6000612ecc82612edd565b9050919050565b6000819050919050565b6000612ee882612f0a565b9050919050565b6000819050919050565b6000601f19601f8301169050919050565b60006c0100000000000000000000000082029050919050565b612f2c81612d48565b8114612f3757600080fd5b50565b612f4381612d78565b8114612f4e57600080fd5b50565b612f5a81612da2565b8114612f6557600080fd5b50565b612f7181612dac565b8114612f7c57600080fd5b5056fea365627a7a723158209f9e62017f54e5d1e9cdb123345fd56463ffc1edd4aeae1bf96ac70183e7f30b6c6578706572696d656e74616cf564736f6c63430005100040608060405234801561001057600080fd5b506115a2806100206000396000f3fe608060405234801561001057600080fd5b5060043610610074576000357c010000000000000000000000000000000000000000000000000000000090048063336299521461007957806334d2c0ad146100a95780633a20e9df146100c75780639b695b37146100f7578063f768402a14610127575b600080fd5b610093600480360361008e9190810190610ee1565b610143565b6040516100a091906112de565b60405180910390f35b6100b161044e565b6040516100be91906112de565b60405180910390f35b6100e160048036036100dc9190810190610f22565b610763565b6040516100ee919061131b565b60405180910390f35b610111600480360361010c9190810190610f4b565b6109e0565b60405161011e9190611300565b60405180910390f35b610141600480360361013c9190810190610e22565b610a01565b005b606080825160405190808252806020026020018201604052801561018157816020015b61016e610bc9565b8152602001906001900390816101665790505b50905060008090505b83518110156104445761019b610c18565b600160008684815181106101ab57fe5b602002602001015181526020019081526020016000206040518060c0016040529081600082015481526020016001820160009054906101000a900473ffffffffffffffffffffffffffffffffffffffff1673ffffffffffffffffffffffffffffffffffffffff1673ffffffffffffffffffffffffffffffffffffffff168152602001600282018054600181600116156101000203166002900480601f0160208091040260200160405190810160405280929190818152602001828054600181600116156101000203166002900480156102c55780601f1061029a576101008083540402835291602001916102c5565b820191906000526020600020905b8154815290600101906020018083116102a857829003601f168201915b50505050508152602001600382018054600181600116156101000203166002900480601f0160208091040260200160405190810160405280929190818152602001828054600181600116156101000203166002900480156103675780601f1061033c57610100808354040283529160200191610367565b820191906000526020600020905b81548152906001019060200180831161034a57829003601f168201915b5050505050815260200160048201548152602001600582018054600181600116156101000203166002900480601f0160208091040260200160405190810160405280929190818152602001828054600181600116156101000203166002900480156104135780601f106103e857610100808354040283529160200191610413565b820191906000526020600020905b8154815290600101906020018083116103f657829003601f168201915b50505050508152505090508083838151811061042b57fe5b602002602001018190525050808060010191505061018a565b5080915050919050565b606060008080549050905060608160405190808252806020026020018201604052801561049557816020015b610482610bc9565b81526020019060019003908161047a5790505b50905060008090505b8281101561075a576104ae610c18565b600160008084815481106104be57fe5b906000526020600020015481526020019081526020016000206040518060c0016040529081600082015481526020016001820160009054906101000a900473ffffffffffffffffffffffffffffffffffffffff1673ffffffffffffffffffffffffffffffffffffffff1673ffffffffffffffffffffffffffffffffffffffff168152602001600282018054600181600116156101000203166002900480601f0160208091040260200160405190810160405280929190818152602001828054600181600116156101000203166002900480156105db5780601f106105b0576101008083540402835291602001916105db565b820191906000526020600020905b8154815290600101906020018083116105be57829003601f168201915b50505050508152602001600382018054600181600116156101000203166002900480601f01602080910402602001604051908101604052809291908181526020018280546001816001161561010002031660029004801561067d5780601f106106525761010080835404028352916020019161067d565b820191906000526020600020905b81548152906001019060200180831161066057829003601f168201915b5050505050815260200160048201548152602001600582018054600181600116156101000203166002900480601f0160208091040260200160405190810160405280929190818152602001828054600181600116156101000203166002900480156107295780601f106106fe57610100808354040283529160200191610729565b820191906000526020600020905b81548152906001019060200180831161070c57829003601f168201915b50505050508152505090508083838151811061074157fe5b602002602001018190525050808060010191505061049e565b50809250505090565b61076b610c18565b600160008381526020019081526020016000206040518060c0016040529081600082015481526020016001820160009054906101000a900473ffffffffffffffffffffffffffffffffffffffff1673ffffffffffffffffffffffffffffffffffffffff1673ffffffffffffffffffffffffffffffffffffffff168152602001600282018054600181600116156101000203166002900480601f0160208091040260200160405190810160405280929190818152602001828054600181600116156101000203166002900480156108825780601f1061085757610100808354040283529160200191610882565b820191906000526020600020905b81548152906001019060200180831161086557829003601f168201915b50505050508152602001600382018054600181600116156101000203166002900480601f0160208091040260200160405190810160405280929190818152602001828054600181600116156101000203166002900480156109245780601f106108f957610100808354040283529160200191610924565b820191906000526020600020905b81548152906001019060200180831161090757829003601f168201915b5050505050815260200160048201548152602001600582018054600181600116156101000203166002900480601f0160208091040260200160405190810160405280929190818152602001828054600181600116156101000203166002900480156109d05780601f106109a5576101008083540402835291602001916109d0565b820191906000526020600020905b8154815290600101906020018083116109b357829003601f168201915b5050505050815250509050919050565b600081815481106109ed57fe5b906000526020600020016000915090505481565b600042868685604051602001610a1a9493929190611256565b604051602081830303815290604052805190602001209050610a3a610c18565b6040518060c001604052808381526020018873ffffffffffffffffffffffffffffffffffffffff168152602001878152602001868152602001858152602001848152509050600082908060018154018082558091505090600182039060005260206000200160009091929091909150555080600160008481526020019081526020016000206000820151816000015560208201518160010160006101000a81548173ffffffffffffffffffffffffffffffffffffffff021916908373ffffffffffffffffffffffffffffffffffffffff1602179055506040820151816002019080519060200190610b2c929190610c67565b506060820151816003019080519060200190610b49929190610c67565b506080820151816004015560a0820151816005019080519060200190610b70929190610c67565b5090505080600001517f0b5c99c2070d07bcf55ceb1068d4136c7ff41760822c21aef5f4f66b46b0c861826020015183604001518460800151604051610bb8939291906112a0565b60405180910390a250505050505050565b6040518060c0016040528060008019168152602001600073ffffffffffffffffffffffffffffffffffffffff168152602001606081526020016060815260200160008152602001606081525090565b6040518060c0016040528060008019168152602001600073ffffffffffffffffffffffffffffffffffffffff168152602001606081526020016060815260200160008152602001606081525090565b828054600181600116156101000203166002900490600052602060002090601f016020900481019282601f10610ca857805160ff1916838001178555610cd6565b82800160010185558215610cd6579182015b82811115610cd5578251825591602001919060010190610cba565b5b509050610ce39190610ce7565b5090565b610d0991905b80821115610d05576000816000905550600101610ced565b5090565b90565b600081359050610d1b8161151a565b92915050565b600082601f830112610d3257600080fd5b8135610d45610d408261136a565b61133d565b91508181835260208401935060208101905083856020840282011115610d6a57600080fd5b60005b83811015610d9a5781610d808882610da4565b845260208401935060208301925050600181019050610d6d565b5050505092915050565b600081359050610db381611531565b92915050565b600082601f830112610dca57600080fd5b8135610ddd610dd882611392565b61133d565b91508082526020830160208301858383011115610df957600080fd5b610e04838284611480565b50505092915050565b600081359050610e1c81611548565b92915050565b600080600080600060a08688031215610e3a57600080fd5b6000610e4888828901610d0c565b955050602086013567ffffffffffffffff811115610e6557600080fd5b610e7188828901610db9565b945050604086013567ffffffffffffffff811115610e8e57600080fd5b610e9a88828901610db9565b9350506060610eab88828901610e0d565b925050608086013567ffffffffffffffff811115610ec857600080fd5b610ed488828901610db9565b9150509295509295909350565b600060208284031215610ef357600080fd5b600082013567ffffffffffffffff811115610f0d57600080fd5b610f1984828501610d21565b91505092915050565b600060208284031215610f3457600080fd5b6000610f4284828501610da4565b91505092915050565b600060208284031215610f5d57600080fd5b6000610f6b84828501610e0d565b91505092915050565b6000610f80838361118a565b905092915050565b610f918161143a565b82525050565b610fa08161143a565b82525050565b610fb7610fb28261143a565b6114c2565b82525050565b6000610fc8826113ce565b610fd281856113fc565b935083602082028501610fe4856113be565b8060005b8581101561102057848403895281516110018582610f74565b945061100c836113ef565b925060208a01995050600181019050610fe8565b50829750879550505050505092915050565b61103b8161144c565b82525050565b61104a8161144c565b82525050565b600061105b826113e4565b611065818561142f565b935061107581856020860161148f565b80840191505092915050565b600061108c826113d9565b611096818561140d565b93506110a681856020860161148f565b6110af816114f0565b840191505092915050565b60006110c5826113d9565b6110cf818561141e565b93506110df81856020860161148f565b6110e8816114f0565b840191505092915050565b600060c08301600083015161110b6000860182611032565b50602083015161111e6020860182610f88565b50604083015184820360408601526111368282611081565b915050606083015184820360608601526111508282611081565b91505060808301516111656080860182611221565b5060a083015184820360a086015261117d8282611081565b9150508091505092915050565b600060c0830160008301516111a26000860182611032565b5060208301516111b56020860182610f88565b50604083015184820360408601526111cd8282611081565b915050606083015184820360608601526111e78282611081565b91505060808301516111fc6080860182611221565b5060a083015184820360a08601526112148282611081565b9150508091505092915050565b61122a81611476565b82525050565b61123981611476565b82525050565b61125061124b82611476565b6114e6565b82525050565b6000611262828761123f565b6020820191506112728286610fa6565b6014820191506112828285611050565b915061128e828461123f565b60208201915081905095945050505050565b60006060820190506112b56000830186610f97565b81810360208301526112c781856110ba565b90506112d66040830184611230565b949350505050565b600060208201905081810360008301526112f88184610fbd565b905092915050565b60006020820190506113156000830184611041565b92915050565b6000602082019050818103600083015261133581846110f3565b905092915050565b6000604051905081810181811067ffffffffffffffff8211171561136057600080fd5b8060405250919050565b600067ffffffffffffffff82111561138157600080fd5b602082029050602081019050919050565b600067ffffffffffffffff8211156113a957600080fd5b601f19601f8301169050602081019050919050565b6000819050602082019050919050565b600081519050919050565b600081519050919050565b600081519050919050565b6000602082019050919050565b600082825260208201905092915050565b600082825260208201905092915050565b600082825260208201905092915050565b600081905092915050565b600061144582611456565b9050919050565b6000819050919050565b600073ffffffffffffffffffffffffffffffffffffffff82169050919050565b6000819050919050565b82818337600083830152505050565b60005b838110156114ad578082015181840152602081019050611492565b838111156114bc576000848401525b50505050565b60006114cd826114d4565b9050919050565b60006114df82611501565b9050919050565b6000819050919050565b6000601f19601f8301169050919050565b60006c0100000000000000000000000082029050919050565b6115238161143a565b811461152e57600080fd5b50565b61153a8161144c565b811461154557600080fd5b50565b61155181611476565b811461155c57600080fd5b5056fea365627a7a72315820961c8ed1a3d90db8f170e41cff1323c0e8fe9ac24d07cbd5ed61971e523ad0fe6c6578706572696d656e74616cf564736f6c634300051000406080604052600061001d6100c0640100000000026401000000009004565b9050806000806101000a81548173ffffffffffffffffffffffffffffffffffffffff021916908373ffffffffffffffffffffffffffffffffffffffff1602179055508073ffffffffffffffffffffffffffffffffffffffff16600073ffffffffffffffffffffffffffffffffffffffff167f8be0079c531659141344cd1fd0a4f28419497f9722a3daafe3b4186f6b6457e060405160405180910390a3506100c8565b600033905090565b6119b2806100d76000396000f3fe608060405234801561001057600080fd5b506004361061009a576000357c0100000000000000000000000000000000000000000000000000000000900480638e164ec1116100785780638e164ec1146100e55780638f32d59b14610115578063a879b41f14610133578063f2fde38b1461014f5761009a565b80631ae342d11461009f578063715018a6146100bd5780638da5cb5b146100c7575b600080fd5b6100a761016b565b6040516100b49190611747565b60405180910390f35b6100c56106a0565b005b6100cf6107a6565b6040516100dc919061172c565b60405180910390f35b6100ff60048036036100fa9190810190611289565b6107cf565b60405161010c91906117e6565b60405180910390f35b61011d610c56565b60405161012a9190611769565b60405180910390f35b61014d600480360361014891908101906112b2565b610cb4565b005b61016960048036036101649190810190611289565b610f4c565b005b6060600060018054905090506060816040519080825280602002602001820160405280156101b357816020015b6101a06110d5565b8152602001906001900390816101985790505b50905060008090505b82811015610697576101cc611128565b60026000600184815481106101dd57fe5b9060005260206000200160009054906101000a900473ffffffffffffffffffffffffffffffffffffffff1673ffffffffffffffffffffffffffffffffffffffff1673ffffffffffffffffffffffffffffffffffffffff1681526020019081526020016000206040518060e00160405290816000820160009054906101000a900473ffffffffffffffffffffffffffffffffffffffff1673ffffffffffffffffffffffffffffffffffffffff1673ffffffffffffffffffffffffffffffffffffffff168152602001600182018054600181600116156101000203166002900480601f01602080910402602001604051908101604052809291908181526020018280546001816001161561010002031660029004801561033c5780601f106103115761010080835404028352916020019161033c565b820191906000526020600020905b81548152906001019060200180831161031f57829003601f168201915b50505050508152602001600282018054600181600116156101000203166002900480601f0160208091040260200160405190810160405280929190818152602001828054600181600116156101000203166002900480156103de5780601f106103b3576101008083540402835291602001916103de565b820191906000526020600020905b8154815290600101906020018083116103c157829003601f168201915b50505050508152602001600382018054600181600116156101000203166002900480601f0160208091040260200160405190810160405280929190818152602001828054600181600116156101000203166002900480156104805780601f1061045557610100808354040283529160200191610480565b820191906000526020600020905b81548152906001019060200180831161046357829003601f168201915b50505050508152602001600482018054600181600116156101000203166002900480601f0160208091040260200160405190810160405280929190818152602001828054600181600116156101000203166002900480156105225780601f106104f757610100808354040283529160200191610522565b820191906000526020600020905b81548152906001019060200180831161050557829003601f168201915b50505050508152602001600582018054600181600116156101000203166002900480601f0160208091040260200160405190810160405280929190818152602001828054600181600116156101000203166002900480156105c45780601f10610599576101008083540402835291602001916105c4565b820191906000526020600020905b8154815290600101906020018083116105a757829003601f168201915b50505050508152602001600682018054600181600116156101000203166002900480601f0160208091040260200160405190810160405280929190818152602001828054600181600116156101000203166002900480156106665780601f1061063b57610100808354040283529160200191610666565b820191906000526020600020905b81548152906001019060200180831161064957829003601f168201915b50505050508152505090508083838151811061067e57fe5b60200260200101819052505080806001019150506101bc565b50809250505090565b6106a8610c56565b6106e7576040517f08c379a00000000000000000000000000000000000000000000000000000000081526004016106de906117c6565b60405180910390fd5b600073ffffffffffffffffffffffffffffffffffffffff166000809054906101000a900473ffffffffffffffffffffffffffffffffffffffff1673ffffffffffffffffffffffffffffffffffffffff167f8be0079c531659141344cd1fd0a4f28419497f9722a3daafe3b4186f6b6457e060405160405180910390a360008060006101000a81548173ffffffffffffffffffffffffffffffffffffffff021916908373ffffffffffffffffffffffffffffffffffffffff160217905550565b60008060009054906101000a900473ffffffffffffffffffffffffffffffffffffffff16905090565b6107d7611128565b6107df611128565b600260008473ffffffffffffffffffffffffffffffffffffffff1673ffffffffffffffffffffffffffffffffffffffff1681526020019081526020016000206040518060e00160405290816000820160009054906101000a900473ffffffffffffffffffffffffffffffffffffffff1673ffffffffffffffffffffffffffffffffffffffff1673ffffffffffffffffffffffffffffffffffffffff168152602001600182018054600181600116156101000203166002900480601f0160208091040260200160405190810160405280929190818152602001828054600181600116156101000203166002900480156109185780601f106108ed57610100808354040283529160200191610918565b820191906000526020600020905b8154815290600101906020018083116108fb57829003601f168201915b50505050508152602001600282018054600181600116156101000203166002900480601f0160208091040260200160405190810160405280929190818152602001828054600181600116156101000203166002900480156109ba5780601f1061098f576101008083540402835291602001916109ba565b820191906000526020600020905b81548152906001019060200180831161099d57829003601f168201915b50505050508152602001600382018054600181600116156101000203166002900480601f016020809104026020016040519081016040528092919081815260200182805460018160011615610100020316600290048015610a5c5780601f10610a3157610100808354040283529160200191610a5c565b820191906000526020600020905b815481529060010190602001808311610a3f57829003601f168201915b50505050508152602001600482018054600181600116156101000203166002900480601f016020809104026020016040519081016040528092919081815260200182805460018160011615610100020316600290048015610afe5780601f10610ad357610100808354040283529160200191610afe565b820191906000526020600020905b815481529060010190602001808311610ae157829003601f168201915b50505050508152602001600582018054600181600116156101000203166002900480601f016020809104026020016040519081016040528092919081815260200182805460018160011615610100020316600290048015610ba05780601f10610b7557610100808354040283529160200191610ba0565b820191906000526020600020905b815481529060010190602001808311610b8357829003601f168201915b50505050508152602001600682018054600181600116156101000203166002900480601f016020809104026020016040519081016040528092919081815260200182805460018160011615610100020316600290048015610c425780601f10610c1757610100808354040283529160200191610c42565b820191906000526020600020905b815481529060010190602001808311610c2557829003601f168201915b505050505081525050905080915050919050565b60008060009054906101000a900473ffffffffffffffffffffffffffffffffffffffff1673ffffffffffffffffffffffffffffffffffffffff16610c98610f9f565b73ffffffffffffffffffffffffffffffffffffffff1614905090565b610cbc610c56565b610cfb576040517f08c379a0000000000000000000000000000000000000000000000000000000008152600401610cf2906117c6565b60405180910390fd5b610d03611128565b6040518060e001604052808973ffffffffffffffffffffffffffffffffffffffff16815260200188815260200187815260200186815260200185815260200184815260200183815250905060018890806001815401808255809150509060018203906000526020600020016000909192909190916101000a81548173ffffffffffffffffffffffffffffffffffffffff021916908373ffffffffffffffffffffffffffffffffffffffff1602179055505080600260008a73ffffffffffffffffffffffffffffffffffffffff1673ffffffffffffffffffffffffffffffffffffffff16815260200190815260200160002060008201518160000160006101000a81548173ffffffffffffffffffffffffffffffffffffffff021916908373ffffffffffffffffffffffffffffffffffffffff1602179055506020820151816001019080519060200190610e5792919061117b565b506040820151816002019080519060200190610e7492919061117b565b506060820151816003019080519060200190610e9192919061117b565b506080820151816004019080519060200190610eae92919061117b565b5060a0820151816005019080519060200190610ecb92919061117b565b5060c0820151816006019080519060200190610ee892919061117b565b50905050806000015173ffffffffffffffffffffffffffffffffffffffff167f7e4811077e82534a89b4097a5dccea33093b67f17a23c79a0a225184ad4e22a48260200151604051610f3a9190611784565b60405180910390a25050505050505050565b610f54610c56565b610f93576040517f08c379a0000000000000000000000000000000000000000000000000000000008152600401610f8a906117c6565b60405180910390fd5b610f9c81610fa7565b50565b600033905090565b600073ffffffffffffffffffffffffffffffffffffffff168173ffffffffffffffffffffffffffffffffffffffff161415611017576040517f08c379a000000000000000000000000000000000000000000000000000000000815260040161100e906117a6565b60405180910390fd5b8073ffffffffffffffffffffffffffffffffffffffff166000809054906101000a900473ffffffffffffffffffffffffffffffffffffffff1673ffffffffffffffffffffffffffffffffffffffff167f8be0079c531659141344cd1fd0a4f28419497f9722a3daafe3b4186f6b6457e060405160405180910390a3806000806101000a81548173ffffffffffffffffffffffffffffffffffffffff021916908373ffffffffffffffffffffffffffffffffffffffff16021790555050565b6040518060e00160405280600073ffffffffffffffffffffffffffffffffffffffff1681526020016060815260200160608152602001606081526020016060815260200160608152602001606081525090565b6040518060e00160405280600073ffffffffffffffffffffffffffffffffffffffff1681526020016060815260200160608152602001606081526020016060815260200160608152602001606081525090565b828054600181600116156101000203166002900490600052602060002090601f016020900481019282601f106111bc57805160ff19168380011785556111ea565b828001600101855582156111ea579182015b828111156111e95782518255916020019190600101906111ce565b5b5090506111f791906111fb565b5090565b61121d91905b80821115611219576000816000905550600101611201565b5090565b90565b60008135905061122f81611958565b92915050565b600082601f83011261124657600080fd5b813561125961125482611835565b611808565b9150808252602083016020830185838301111561127557600080fd5b611280838284611905565b50505092915050565b60006020828403121561129b57600080fd5b60006112a984828501611220565b91505092915050565b600080600080600080600060e0888a0312156112cd57600080fd5b60006112db8a828b01611220565b975050602088013567ffffffffffffffff8111156112f857600080fd5b6113048a828b01611235565b965050604088013567ffffffffffffffff81111561132157600080fd5b61132d8a828b01611235565b955050606088013567ffffffffffffffff81111561134a57600080fd5b6113568a828b01611235565b945050608088013567ffffffffffffffff81111561137357600080fd5b61137f8a828b01611235565b93505060a088013567ffffffffffffffff81111561139c57600080fd5b6113a88a828b01611235565b92505060c088013567ffffffffffffffff8111156113c557600080fd5b6113d18a828b01611235565b91505092959891949750929550565b60006113ec838361166d565b905092915050565b6113fd816118c7565b82525050565b61140c816118c7565b82525050565b600061141d82611871565b6114278185611894565b93508360208202850161143985611861565b8060005b85811015611475578484038952815161145685826113e0565b945061146183611887565b925060208a0199505060018101905061143d565b50829750879550505050505092915050565b611490816118d9565b82525050565b60006114a18261187c565b6114ab81856118a5565b93506114bb818560208601611914565b6114c481611947565b840191505092915050565b60006114da8261187c565b6114e481856118b6565b93506114f4818560208601611914565b6114fd81611947565b840191505092915050565b60006115156026836118b6565b91507f4f776e61626c653a206e6577206f776e657220697320746865207a65726f206160008301527f64647265737300000000000000000000000000000000000000000000000000006020830152604082019050919050565b600061157b6020836118b6565b91507f4f776e61626c653a2063616c6c6572206973206e6f7420746865206f776e65726000830152602082019050919050565b600060e0830160008301516115c660008601826113f4565b50602083015184820360208601526115de8282611496565b915050604083015184820360408601526115f88282611496565b915050606083015184820360608601526116128282611496565b9150506080830151848203608086015261162c8282611496565b91505060a083015184820360a08601526116468282611496565b91505060c083015184820360c08601526116608282611496565b9150508091505092915050565b600060e08301600083015161168560008601826113f4565b506020830151848203602086015261169d8282611496565b915050604083015184820360408601526116b78282611496565b915050606083015184820360608601526116d18282611496565b915050608083015184820360808601526116eb8282611496565b91505060a083015184820360a08601526117058282611496565b91505060c083015184820360c086015261171f8282611496565b9150508091505092915050565b60006020820190506117416000830184611403565b92915050565b600060208201905081810360008301526117618184611412565b905092915050565b600060208201905061177e6000830184611487565b92915050565b6000602082019050818103600083015261179e81846114cf565b905092915050565b600060208201905081810360008301526117bf81611508565b9050919050565b600060208201905081810360008301526117df8161156e565b9050919050565b6000602082019050818103600083015261180081846115ae565b905092915050565b6000604051905081810181811067ffffffffffffffff8211171561182b57600080fd5b8060405250919050565b600067ffffffffffffffff82111561184c57600080fd5b601f19601f8301169050602081019050919050565b6000819050602082019050919050565b600081519050919050565b600081519050919050565b6000602082019050919050565b600082825260208201905092915050565b600082825260208201905092915050565b600082825260208201905092915050565b60006118d2826118e5565b9050919050565b60008115159050919050565b600073ffffffffffffffffffffffffffffffffffffffff82169050919050565b82818337600083830152505050565b60005b83811015611932578082015181840152602081019050611917565b83811115611941576000848401525b50505050565b6000601f19601f8301169050919050565b611961816118c7565b811461196c57600080fd5b5056fea365627a7a72315820472fddd12a673a8c1142e5dd7156049813b6bb210a5b88d0188a0ce5fb2561e26c6578706572696d656e74616cf564736f6c63430005100040",
  "source": "pragma solidity ^0.5.16;\r\npragma experimental ABIEncoderV2;\r\n\r\nimport \"@openzeppelin/contracts/ownership/Ownable.sol\";\r\nimport \"./ProductContract.sol\";\r\nimport \"./TargetContract.sol\";\r\n\r\ncontract CampaignContract is Ownable {\r\n\r\n    ProductContract public productContract;\r\n    TargetContract public targetContract;\r\n\r\n    struct Invoice {\r\n        bytes32 productId;\r\n        uint8 step; //0:,1:,2:\r\n    }\r\n\r\n    struct Donate {\r\n        address addr;// \r\n        uint amount;//\r\n        bool refunded;//(  \r\n    }\r\n\r\n    struct Campaign {\r\n        bytes32 id;// \r\n        string name;//\r\n        string thumbnail;// URL\r\n        uint cap;// wei\r\n        uint totalAmount;//\r\n        uint startTime;// \r\n        uint endTime;// \r\n        string contents;//   URL\r\n        address targetAddress;//\r\n        bytes32[] productIdList;//\r\n\r\n        address[] donorAddressList;\r\n    }\r\n\r\n    event AddCampaign(bytes32 id, address targetAddress, string name);\r\n    event DoDonate(bytes32 campaignId, address donor, uint256 amount);\r\n    event Refund(bytes32 campaignId, address donor, uint256 amount);\r\n    event CreateInvoice(bytes32 campaignId, bytes32 productId, uint8 step);\r\n    event Submit(bytes32 campaignId,bytes32 productId,uint8 step);\r\n    event DoWithdrawal(bytes32 campaignId,bytes32 productId,uint8 step);\r\n\r\n\r\n    //    constructor(ProductContract _productContract, TargetContract _targetContract) public {\r\n//        productContract = _productContract;\r\n//        targetContract = _targetContract;\r\n//    }\r\n    constructor() public {\r\n        productContract = new ProductContract();\r\n        targetContract = new TargetContract();\r\n        targetContract.transferOwnership(msg.sender);\r\n    }\r\n\r\n    bytes32[] campaignIdList;\r\n    mapping(bytes32 => Campaign) campaignMap;\r\n    mapping(bytes32 => mapping(bytes32 => Invoice)) invoiceMap;\r\n    mapping(bytes32 => mapping(address => Donate[])) donateListMap;//\r\n\r\n    function addCampaign(\r\n        address _targetAddress,\r\n        string memory _name,\r\n        string memory _thumbnail,\r\n        uint _cap,\r\n        uint _startTime,\r\n        uint _endTime,\r\n        string memory _contents,\r\n        bytes32[] memory _productIdList\r\n    ) public onlyOwner() {\r\n        bytes32 id = keccak256(abi.encodePacked(now, _targetAddress, _name));\r\n\r\n    Campaign storage cam = campaignMap[id];\r\n        require(cam.id == bytes32(0));\r\n\r\n        cam.id = id;\r\n        cam.name = _name;\r\n        cam.thumbnail = _thumbnail;\r\n        cam.cap = _cap;\r\n        cam.startTime = _startTime;\r\n        cam.endTime = _endTime;\r\n        cam.contents = _contents;\r\n        cam.targetAddress = _targetAddress;\r\n        cam.productIdList = _productIdList;\r\n\r\n        campaignIdList.push(id);\r\n\r\n        emit AddCampaign(id, _targetAddress, _name);\r\n    }\r\n\r\n    function getCampaignList() public view returns (Campaign[] memory) {\r\n        uint arrayLength = campaignIdList.length;\r\n        Campaign[] memory campaignList = new Campaign[](arrayLength);\r\n        for (uint i = 0; i < arrayLength; i++) {\r\n            Campaign memory cam = campaignMap[campaignIdList[i]];\r\n            campaignList[i] = cam;\r\n        }\r\n        return campaignList;\r\n    }\r\n    function getCampaign(bytes32 _id) public view returns (Campaign memory){\r\n        return campaignMap[_id];\r\n    }\r\n\r\n    function donate(bytes32 campaignId) public payable {\r\n        Campaign storage campaign = campaignMap[campaignId];\r\n        require(campaign.id != bytes32(0));\r\n        require(campaign.cap >= campaign.totalAmount + msg.value);\r\n        require(now >= campaign.startTime && now <= campaign.endTime);\r\n\r\n        Donate[] storage donateList = donateListMap[campaignId][msg.sender];\r\n        donateList.length += 1;\r\n        Donate storage donate = donateList[donateList.length - 1];\r\n        donate.addr = msg.sender;\r\n        donate.amount = msg.value;\r\n        campaign.donorAddressList.push(msg.sender);\r\n        campaign.totalAmount += msg.value;\r\n\r\n        emit DoDonate(campaignId, msg.sender, msg.value);\r\n    }\r\n\r\n    function refund(bytes32 campaignId) public {\r\n        Campaign storage campaign = campaignMap[campaignId];\r\n        require(campaign.id != bytes32(0));\r\n        require(campaign.cap > campaign.totalAmount);\r\n        require(now > campaign.endTime);\r\n\r\n        Donate[] storage donateList = donateListMap[campaignId][msg.sender];\r\n        require(donateList.length > 0);\r\n\r\n        for (uint i = 0; i < donateList.length; i++) {\r\n            uint256 amount = donateList[i].amount;\r\n            msg.sender.transfer(amount);\r\n            donateList[i].refunded = true;\r\n\r\n            emit Refund(campaignId, msg.sender, amount);\r\n        }\r\n    }\r\n\r\n    function createInvoice(bytes32 campaignId, bytes32 productId) public {\r\n        Campaign storage campaign = campaignMap[campaignId];\r\n        require(campaign.id != bytes32(0));\r\n\r\n        Invoice storage invoice = invoiceMap[campaignId][productId];\r\n        require(invoice.productId == bytes32(0));\r\n\r\n        invoice.productId = productId;\r\n        invoice.step = 1;\r\n\r\n        emit CreateInvoice(campaignId, productId, 1);\r\n    }\r\n    function getInvoiceStepByCampaign(bytes32 campaignId, bytes32 productId) public view returns(uint8){\r\n\r\n\r\n        Invoice storage invoice = invoiceMap[campaignId][productId];\r\n\r\n        return invoice.step;\r\n\r\n    }\r\n    function submitReceipt(\r\n        bytes32 campaignId,\r\n        bytes32 productId,\r\n        uint8 _v,\r\n        bytes32 _r,\r\n        bytes32 _s\r\n    ) public {\r\n        require(campaignMap[campaignId].targetAddress == msg.sender);\r\n        Invoice storage invoice = invoiceMap[campaignId][productId];\r\n        require(invoice.step == 1);\r\n\r\n        bytes32 message = keccak256(abi.encodePacked(campaignId, productId, msg.sender));\r\n        bytes32 prefixedHash = keccak256(abi.encodePacked(\"\\x19Ethereum Signed Message:\\n\", \"32\", message));\r\n        address signer = ecrecover(prefixedHash, _v, _r, _s);\r\n\r\n        ProductContract.Product memory product = productContract.getProduct(productId);\r\n        require(product.supplier == signer);\r\n        invoice.step=2;\r\n        emit Submit(campaignId,productId,2);\r\n    }\r\n\r\n\r\n    function withdrawal(bytes32 campaignId,bytes32 productId) public {\r\n        Invoice storage invoice = invoiceMap[campaignId][productId];\r\n        bytes32 orgProductId=invoice.productId;\r\n        require(orgProductId != bytes32(0) && invoice.step==2);\r\n        ProductContract.Product memory product = productContract.getProduct(orgProductId);\r\n        require(product.supplier == msg.sender);\r\n        msg.sender.transfer(product.price);\r\n        invoice.step=3;\r\n        emit DoWithdrawal(campaignId, productId, 3);\r\n    }\r\n    function uint2str(uint i) internal pure returns (string memory) {\r\n        if (i == 0) return \"0\";\r\n        uint j = i;\r\n        uint length;\r\n        while (j != 0){\r\n            length++;\r\n            j /= 10;\r\n        }\r\n        bytes memory bstr = new bytes(length);\r\n        uint k = length - 1;\r\n        while (i != 0){\r\n            bstr[k--] = byte(uint8(48 + i % 10));\r\n            i /= 10;\r\n        }\r\n        return string(bstr);\r\n    }\r\n}\r\n",
  "sourcePath": "C:\\intellij_workspace\\donate\\solidity\\contracts\\CampaignContract.sol",
  "compiler": {
    "name": "solc",
    "version": "0.5.16+commit.9c3226ce.Emscripten.clang"
  },
  "schemaVersion": "3.0.23",
  "updatedAt": "2020-04-16T10:42:42.239Z",
  "devdoc": {
    "methods": {
      "isOwner()": {
        "details": "Returns true if the caller is the current owner."
      },
      "owner()": {
        "details": "Returns the address of the current owner."
      },
      "renounceOwnership()": {
        "details": "Leaves the contract without owner. It will not be possible to call `onlyOwner` functions anymore. Can only be called by the current owner.      * NOTE: Renouncing ownership will leave the contract without an owner, thereby removing any functionality that is only available to the owner."
      },
      "transferOwnership(address)": {
        "details": "Transfers ownership of the contract to a new account (`newOwner`). Can only be called by the current owner."
      }
    }
  },
  "userdoc": {
    "methods": {}
  }
}