{
  "contractName": "ProductContract",
  "abi": [
    {
      "anonymous": false,
      "inputs": [
        {
          "indexed": true,
          "internalType": "bytes32",
          "name": "id",
          "type": "bytes32"
        },
        {
          "indexed": false,
          "internalType": "address",
          "name": "supplier",
          "type": "address"
        },
        {
          "indexed": false,
          "internalType": "string",
          "name": "name",
          "type": "string"
        },
        {
          "indexed": false,
          "internalType": "uint256",
          "name": "price",
          "type": "uint256"
        }
      ],
      "name": "AddProduct",
      "type": "event"
    },
    {
      "constant": true,
      "inputs": [
        {
          "internalType": "uint256",
          "name": "",
          "type": "uint256"
        }
      ],
      "name": "productIdList",
      "outputs": [
        {
          "internalType": "bytes32",
          "name": "",
          "type": "bytes32"
        }
      ],
      "payable": false,
      "stateMutability": "view",
      "type": "function"
    },
    {
      "constant": false,
      "inputs": [
        {
          "internalType": "address",
          "name": "_supplier",
          "type": "address"
        },
        {
          "internalType": "string",
          "name": "_name",
          "type": "string"
        },
        {
          "internalType": "string",
          "name": "_thumbnail",
          "type": "string"
        },
        {
          "internalType": "uint256",
          "name": "_price",
          "type": "uint256"
        },
        {
          "internalType": "string",
          "name": "_contents",
          "type": "string"
        }
      ],
      "name": "addProduct",
      "outputs": [],
      "payable": false,
      "stateMutability": "nonpayable",
      "type": "function"
    },
    {
      "constant": true,
      "inputs": [
        {
          "internalType": "bytes32",
          "name": "productId",
          "type": "bytes32"
        }
      ],
      "name": "getProduct",
      "outputs": [
        {
          "components": [
            {
              "internalType": "bytes32",
              "name": "id",
              "type": "bytes32"
            },
            {
              "internalType": "address",
              "name": "supplier",
              "type": "address"
            },
            {
              "internalType": "string",
              "name": "name",
              "type": "string"
            },
            {
              "internalType": "string",
              "name": "thumbnail",
              "type": "string"
            },
            {
              "internalType": "uint256",
              "name": "price",
              "type": "uint256"
            },
            {
              "internalType": "string",
              "name": "contents",
              "type": "string"
            }
          ],
          "internalType": "struct ProductContract.Product",
          "name": "",
          "type": "tuple"
        }
      ],
      "payable": false,
      "stateMutability": "view",
      "type": "function"
    },
    {
      "constant": true,
      "inputs": [
        {
          "internalType": "bytes32[]",
          "name": "productIdList",
          "type": "bytes32[]"
        }
      ],
      "name": "getProductList",
      "outputs": [
        {
          "components": [
            {
              "internalType": "bytes32",
              "name": "id",
              "type": "bytes32"
            },
            {
              "internalType": "address",
              "name": "supplier",
              "type": "address"
            },
            {
              "internalType": "string",
              "name": "name",
              "type": "string"
            },
            {
              "internalType": "string",
              "name": "thumbnail",
              "type": "string"
            },
            {
              "internalType": "uint256",
              "name": "price",
              "type": "uint256"
            },
            {
              "internalType": "string",
              "name": "contents",
              "type": "string"
            }
          ],
          "internalType": "struct ProductContract.Product[]",
          "name": "",
          "type": "tuple[]"
        }
      ],
      "payable": false,
      "stateMutability": "view",
      "type": "function"
    },
    {
      "constant": true,
      "inputs": [],
      "name": "getProductList",
      "outputs": [
        {
          "components": [
            {
              "internalType": "bytes32",
              "name": "id",
              "type": "bytes32"
            },
            {
              "internalType": "address",
              "name": "supplier",
              "type": "address"
            },
            {
              "internalType": "string",
              "name": "name",
              "type": "string"
            },
            {
              "internalType": "string",
              "name": "thumbnail",
              "type": "string"
            },
            {
              "internalType": "uint256",
              "name": "price",
              "type": "uint256"
            },
            {
              "internalType": "string",
              "name": "contents",
              "type": "string"
            }
          ],
          "internalType": "struct ProductContract.Product[]",
          "name": "",
          "type": "tuple[]"
        }
      ],
      "payable": false,
      "stateMutability": "view",
      "type": "function"
    }
  ],
  "bytecode": "0x608060405234801561001057600080fd5b506115a2806100206000396000f3fe608060405234801561001057600080fd5b5060043610610074576000357c010000000000000000000000000000000000000000000000000000000090048063336299521461007957806334d2c0ad146100a95780633a20e9df146100c75780639b695b37146100f7578063f768402a14610127575b600080fd5b610093600480360361008e9190810190610ee1565b610143565b6040516100a091906112de565b60405180910390f35b6100b161044e565b6040516100be91906112de565b60405180910390f35b6100e160048036036100dc9190810190610f22565b610763565b6040516100ee919061131b565b60405180910390f35b610111600480360361010c9190810190610f4b565b6109e0565b60405161011e9190611300565b60405180910390f35b610141600480360361013c9190810190610e22565b610a01565b005b606080825160405190808252806020026020018201604052801561018157816020015b61016e610bc9565b8152602001906001900390816101665790505b50905060008090505b83518110156104445761019b610c18565b600160008684815181106101ab57fe5b602002602001015181526020019081526020016000206040518060c0016040529081600082015481526020016001820160009054906101000a900473ffffffffffffffffffffffffffffffffffffffff1673ffffffffffffffffffffffffffffffffffffffff1673ffffffffffffffffffffffffffffffffffffffff168152602001600282018054600181600116156101000203166002900480601f0160208091040260200160405190810160405280929190818152602001828054600181600116156101000203166002900480156102c55780601f1061029a576101008083540402835291602001916102c5565b820191906000526020600020905b8154815290600101906020018083116102a857829003601f168201915b50505050508152602001600382018054600181600116156101000203166002900480601f0160208091040260200160405190810160405280929190818152602001828054600181600116156101000203166002900480156103675780601f1061033c57610100808354040283529160200191610367565b820191906000526020600020905b81548152906001019060200180831161034a57829003601f168201915b5050505050815260200160048201548152602001600582018054600181600116156101000203166002900480601f0160208091040260200160405190810160405280929190818152602001828054600181600116156101000203166002900480156104135780601f106103e857610100808354040283529160200191610413565b820191906000526020600020905b8154815290600101906020018083116103f657829003601f168201915b50505050508152505090508083838151811061042b57fe5b602002602001018190525050808060010191505061018a565b5080915050919050565b606060008080549050905060608160405190808252806020026020018201604052801561049557816020015b610482610bc9565b81526020019060019003908161047a5790505b50905060008090505b8281101561075a576104ae610c18565b600160008084815481106104be57fe5b906000526020600020015481526020019081526020016000206040518060c0016040529081600082015481526020016001820160009054906101000a900473ffffffffffffffffffffffffffffffffffffffff1673ffffffffffffffffffffffffffffffffffffffff1673ffffffffffffffffffffffffffffffffffffffff168152602001600282018054600181600116156101000203166002900480601f0160208091040260200160405190810160405280929190818152602001828054600181600116156101000203166002900480156105db5780601f106105b0576101008083540402835291602001916105db565b820191906000526020600020905b8154815290600101906020018083116105be57829003601f168201915b50505050508152602001600382018054600181600116156101000203166002900480601f01602080910402602001604051908101604052809291908181526020018280546001816001161561010002031660029004801561067d5780601f106106525761010080835404028352916020019161067d565b820191906000526020600020905b81548152906001019060200180831161066057829003601f168201915b5050505050815260200160048201548152602001600582018054600181600116156101000203166002900480601f0160208091040260200160405190810160405280929190818152602001828054600181600116156101000203166002900480156107295780601f106106fe57610100808354040283529160200191610729565b820191906000526020600020905b81548152906001019060200180831161070c57829003601f168201915b50505050508152505090508083838151811061074157fe5b602002602001018190525050808060010191505061049e565b50809250505090565b61076b610c18565b600160008381526020019081526020016000206040518060c0016040529081600082015481526020016001820160009054906101000a900473ffffffffffffffffffffffffffffffffffffffff1673ffffffffffffffffffffffffffffffffffffffff1673ffffffffffffffffffffffffffffffffffffffff168152602001600282018054600181600116156101000203166002900480601f0160208091040260200160405190810160405280929190818152602001828054600181600116156101000203166002900480156108825780601f1061085757610100808354040283529160200191610882565b820191906000526020600020905b81548152906001019060200180831161086557829003601f168201915b50505050508152602001600382018054600181600116156101000203166002900480601f0160208091040260200160405190810160405280929190818152602001828054600181600116156101000203166002900480156109245780601f106108f957610100808354040283529160200191610924565b820191906000526020600020905b81548152906001019060200180831161090757829003601f168201915b5050505050815260200160048201548152602001600582018054600181600116156101000203166002900480601f0160208091040260200160405190810160405280929190818152602001828054600181600116156101000203166002900480156109d05780601f106109a5576101008083540402835291602001916109d0565b820191906000526020600020905b8154815290600101906020018083116109b357829003601f168201915b5050505050815250509050919050565b600081815481106109ed57fe5b906000526020600020016000915090505481565b600042868685604051602001610a1a9493929190611256565b604051602081830303815290604052805190602001209050610a3a610c18565b6040518060c001604052808381526020018873ffffffffffffffffffffffffffffffffffffffff168152602001878152602001868152602001858152602001848152509050600082908060018154018082558091505090600182039060005260206000200160009091929091909150555080600160008481526020019081526020016000206000820151816000015560208201518160010160006101000a81548173ffffffffffffffffffffffffffffffffffffffff021916908373ffffffffffffffffffffffffffffffffffffffff1602179055506040820151816002019080519060200190610b2c929190610c67565b506060820151816003019080519060200190610b49929190610c67565b506080820151816004015560a0820151816005019080519060200190610b70929190610c67565b5090505080600001517f0b5c99c2070d07bcf55ceb1068d4136c7ff41760822c21aef5f4f66b46b0c861826020015183604001518460800151604051610bb8939291906112a0565b60405180910390a250505050505050565b6040518060c0016040528060008019168152602001600073ffffffffffffffffffffffffffffffffffffffff168152602001606081526020016060815260200160008152602001606081525090565b6040518060c0016040528060008019168152602001600073ffffffffffffffffffffffffffffffffffffffff168152602001606081526020016060815260200160008152602001606081525090565b828054600181600116156101000203166002900490600052602060002090601f016020900481019282601f10610ca857805160ff1916838001178555610cd6565b82800160010185558215610cd6579182015b82811115610cd5578251825591602001919060010190610cba565b5b509050610ce39190610ce7565b5090565b610d0991905b80821115610d05576000816000905550600101610ced565b5090565b90565b600081359050610d1b8161151a565b92915050565b600082601f830112610d3257600080fd5b8135610d45610d408261136a565b61133d565b91508181835260208401935060208101905083856020840282011115610d6a57600080fd5b60005b83811015610d9a5781610d808882610da4565b845260208401935060208301925050600181019050610d6d565b5050505092915050565b600081359050610db381611531565b92915050565b600082601f830112610dca57600080fd5b8135610ddd610dd882611392565b61133d565b91508082526020830160208301858383011115610df957600080fd5b610e04838284611480565b50505092915050565b600081359050610e1c81611548565b92915050565b600080600080600060a08688031215610e3a57600080fd5b6000610e4888828901610d0c565b955050602086013567ffffffffffffffff811115610e6557600080fd5b610e7188828901610db9565b945050604086013567ffffffffffffffff811115610e8e57600080fd5b610e9a88828901610db9565b9350506060610eab88828901610e0d565b925050608086013567ffffffffffffffff811115610ec857600080fd5b610ed488828901610db9565b9150509295509295909350565b600060208284031215610ef357600080fd5b600082013567ffffffffffffffff811115610f0d57600080fd5b610f1984828501610d21565b91505092915050565b600060208284031215610f3457600080fd5b6000610f4284828501610da4565b91505092915050565b600060208284031215610f5d57600080fd5b6000610f6b84828501610e0d565b91505092915050565b6000610f80838361118a565b905092915050565b610f918161143a565b82525050565b610fa08161143a565b82525050565b610fb7610fb28261143a565b6114c2565b82525050565b6000610fc8826113ce565b610fd281856113fc565b935083602082028501610fe4856113be565b8060005b8581101561102057848403895281516110018582610f74565b945061100c836113ef565b925060208a01995050600181019050610fe8565b50829750879550505050505092915050565b61103b8161144c565b82525050565b61104a8161144c565b82525050565b600061105b826113e4565b611065818561142f565b935061107581856020860161148f565b80840191505092915050565b600061108c826113d9565b611096818561140d565b93506110a681856020860161148f565b6110af816114f0565b840191505092915050565b60006110c5826113d9565b6110cf818561141e565b93506110df81856020860161148f565b6110e8816114f0565b840191505092915050565b600060c08301600083015161110b6000860182611032565b50602083015161111e6020860182610f88565b50604083015184820360408601526111368282611081565b915050606083015184820360608601526111508282611081565b91505060808301516111656080860182611221565b5060a083015184820360a086015261117d8282611081565b9150508091505092915050565b600060c0830160008301516111a26000860182611032565b5060208301516111b56020860182610f88565b50604083015184820360408601526111cd8282611081565b915050606083015184820360608601526111e78282611081565b91505060808301516111fc6080860182611221565b5060a083015184820360a08601526112148282611081565b9150508091505092915050565b61122a81611476565b82525050565b61123981611476565b82525050565b61125061124b82611476565b6114e6565b82525050565b6000611262828761123f565b6020820191506112728286610fa6565b6014820191506112828285611050565b915061128e828461123f565b60208201915081905095945050505050565b60006060820190506112b56000830186610f97565b81810360208301526112c781856110ba565b90506112d66040830184611230565b949350505050565b600060208201905081810360008301526112f88184610fbd565b905092915050565b60006020820190506113156000830184611041565b92915050565b6000602082019050818103600083015261133581846110f3565b905092915050565b6000604051905081810181811067ffffffffffffffff8211171561136057600080fd5b8060405250919050565b600067ffffffffffffffff82111561138157600080fd5b602082029050602081019050919050565b600067ffffffffffffffff8211156113a957600080fd5b601f19601f8301169050602081019050919050565b6000819050602082019050919050565b600081519050919050565b600081519050919050565b600081519050919050565b6000602082019050919050565b600082825260208201905092915050565b600082825260208201905092915050565b600082825260208201905092915050565b600081905092915050565b600061144582611456565b9050919050565b6000819050919050565b600073ffffffffffffffffffffffffffffffffffffffff82169050919050565b6000819050919050565b82818337600083830152505050565b60005b838110156114ad578082015181840152602081019050611492565b838111156114bc576000848401525b50505050565b60006114cd826114d4565b9050919050565b60006114df82611501565b9050919050565b6000819050919050565b6000601f19601f8301169050919050565b60006c0100000000000000000000000082029050919050565b6115238161143a565b811461152e57600080fd5b50565b61153a8161144c565b811461154557600080fd5b50565b61155181611476565b811461155c57600080fd5b5056fea365627a7a72315820961c8ed1a3d90db8f170e41cff1323c0e8fe9ac24d07cbd5ed61971e523ad0fe6c6578706572696d656e74616cf564736f6c63430005100040",
  "source": "pragma solidity ^0.5.16;\r\npragma experimental ABIEncoderV2;\r\n\r\n\r\ncontract ProductContract {\r\n\r\n    bytes32[] public productIdList;\r\n    mapping (bytes32 => Product) internal productMap;\r\n\r\n    event AddProduct(bytes32 indexed id, address supplier, string name, uint price);\r\n\r\n    struct Product {\r\n        bytes32 id;\r\n        address supplier;//판매자\r\n        string name;//상품명\r\n        string thumbnail;//상품 썸네일 URL\r\n        uint price;//상품금액 wei\r\n        string contents;//상품 상세소개 이미지 URL\r\n    }\r\n\r\n    function addProduct(\r\n        address _supplier,\r\n        string memory _name,\r\n        string memory _thumbnail,\r\n        uint _price,\r\n        string memory _contents\r\n    ) public {\r\n        bytes32 id = keccak256(abi.encodePacked(now, _supplier, _name, _price));\r\n\r\n        Product memory pc = Product(id, _supplier, _name, _thumbnail, _price, _contents);\r\n\r\n        productIdList.push(id);\r\n        productMap[id] = pc;\r\n\r\n        emit AddProduct(pc.id, pc.supplier, pc.name, pc.price);\r\n    }\r\n\r\n    function getProduct(bytes32 productId) public view returns (Product memory) {\r\n        return productMap[productId];\r\n    }\r\n\r\n    function getProductList() public view returns (Product[] memory) {\r\n        uint arrayLength = productIdList.length;\r\n        Product[] memory productList = new Product[](arrayLength);\r\n\r\n        for (uint i = 0; i < arrayLength; i++) {\r\n            Product memory pc = productMap[productIdList[i]];\r\n            productList[i] = pc;\r\n        }\r\n        return productList;\r\n    }\r\n\r\n    function getProductList(bytes32[] memory productIdList) public view returns (Product[] memory) {\r\n        Product[] memory productList = new Product[](productIdList.length);\r\n\r\n        for (uint i = 0; i < productIdList.length; i++) {\r\n            Product memory pc = productMap[productIdList[i]];\r\n            productList[i] = pc;\r\n        }\r\n        return productList;\r\n    }\r\n}\r\n",
  "sourcePath": "C:\\intellij_workspace\\donate\\solidity\\contracts\\ProductContract.sol",
  "compiler": {
    "name": "solc",
    "version": "0.5.16+commit.9c3226ce.Emscripten.clang"
  },
  "schemaVersion": "3.0.23",
  "updatedAt": "2020-04-16T10:42:42.284Z",
  "devdoc": {
    "methods": {}
  },
  "userdoc": {
    "methods": {}
  }
}