{
  "contractName": "TargetContract",
  "abi": [
    {
      "anonymous": false,
      "inputs": [
        {
          "indexed": true,
          "internalType": "address",
          "name": "addr",
          "type": "address"
        },
        {
          "indexed": false,
          "internalType": "string",
          "name": "name",
          "type": "string"
        }
      ],
      "name": "AddTarget",
      "type": "event"
    },
    {
      "anonymous": false,
      "inputs": [
        {
          "indexed": true,
          "internalType": "address",
          "name": "previousOwner",
          "type": "address"
        },
        {
          "indexed": true,
          "internalType": "address",
          "name": "newOwner",
          "type": "address"
        }
      ],
      "name": "OwnershipTransferred",
      "type": "event"
    },
    {
      "constant": true,
      "inputs": [],
      "name": "isOwner",
      "outputs": [
        {
          "internalType": "bool",
          "name": "",
          "type": "bool"
        }
      ],
      "payable": false,
      "stateMutability": "view",
      "type": "function"
    },
    {
      "constant": true,
      "inputs": [],
      "name": "owner",
      "outputs": [
        {
          "internalType": "address",
          "name": "",
          "type": "address"
        }
      ],
      "payable": false,
      "stateMutability": "view",
      "type": "function"
    },
    {
      "constant": false,
      "inputs": [],
      "name": "renounceOwnership",
      "outputs": [],
      "payable": false,
      "stateMutability": "nonpayable",
      "type": "function"
    },
    {
      "constant": false,
      "inputs": [
        {
          "internalType": "address",
          "name": "newOwner",
          "type": "address"
        }
      ],
      "name": "transferOwnership",
      "outputs": [],
      "payable": false,
      "stateMutability": "nonpayable",
      "type": "function"
    },
    {
      "constant": false,
      "inputs": [
        {
          "internalType": "address",
          "name": "_addr",
          "type": "address"
        },
        {
          "internalType": "string",
          "name": "_name",
          "type": "string"
        },
        {
          "internalType": "string",
          "name": "_thumbnail",
          "type": "string"
        },
        {
          "internalType": "string",
          "name": "_gender",
          "type": "string"
        },
        {
          "internalType": "string",
          "name": "_birthday",
          "type": "string"
        },
        {
          "internalType": "string",
          "name": "_country",
          "type": "string"
        },
        {
          "internalType": "string",
          "name": "_contents",
          "type": "string"
        }
      ],
      "name": "addTarget",
      "outputs": [],
      "payable": false,
      "stateMutability": "nonpayable",
      "type": "function"
    },
    {
      "constant": true,
      "inputs": [
        {
          "internalType": "address",
          "name": "_targetAddress",
          "type": "address"
        }
      ],
      "name": "getTarget",
      "outputs": [
        {
          "components": [
            {
              "internalType": "address",
              "name": "addr",
              "type": "address"
            },
            {
              "internalType": "string",
              "name": "name",
              "type": "string"
            },
            {
              "internalType": "string",
              "name": "thumbnail",
              "type": "string"
            },
            {
              "internalType": "string",
              "name": "gender",
              "type": "string"
            },
            {
              "internalType": "string",
              "name": "birthday",
              "type": "string"
            },
            {
              "internalType": "string",
              "name": "country",
              "type": "string"
            },
            {
              "internalType": "string",
              "name": "contents",
              "type": "string"
            }
          ],
          "internalType": "struct TargetContract.Target",
          "name": "",
          "type": "tuple"
        }
      ],
      "payable": false,
      "stateMutability": "view",
      "type": "function"
    },
    {
      "constant": true,
      "inputs": [],
      "name": "getTargetList",
      "outputs": [
        {
          "components": [
            {
              "internalType": "address",
              "name": "addr",
              "type": "address"
            },
            {
              "internalType": "string",
              "name": "name",
              "type": "string"
            },
            {
              "internalType": "string",
              "name": "thumbnail",
              "type": "string"
            },
            {
              "internalType": "string",
              "name": "gender",
              "type": "string"
            },
            {
              "internalType": "string",
              "name": "birthday",
              "type": "string"
            },
            {
              "internalType": "string",
              "name": "country",
              "type": "string"
            },
            {
              "internalType": "string",
              "name": "contents",
              "type": "string"
            }
          ],
          "internalType": "struct TargetContract.Target[]",
          "name": "",
          "type": "tuple[]"
        }
      ],
      "payable": false,
      "stateMutability": "view",
      "type": "function"
    }
  ],
  "bytecode": "0x6080604052600061001d6100c0640100000000026401000000009004565b9050806000806101000a81548173ffffffffffffffffffffffffffffffffffffffff021916908373ffffffffffffffffffffffffffffffffffffffff1602179055508073ffffffffffffffffffffffffffffffffffffffff16600073ffffffffffffffffffffffffffffffffffffffff167f8be0079c531659141344cd1fd0a4f28419497f9722a3daafe3b4186f6b6457e060405160405180910390a3506100c8565b600033905090565b6119b2806100d76000396000f3fe608060405234801561001057600080fd5b506004361061009a576000357c0100000000000000000000000000000000000000000000000000000000900480638e164ec1116100785780638e164ec1146100e55780638f32d59b14610115578063a879b41f14610133578063f2fde38b1461014f5761009a565b80631ae342d11461009f578063715018a6146100bd5780638da5cb5b146100c7575b600080fd5b6100a761016b565b6040516100b49190611747565b60405180910390f35b6100c56106a0565b005b6100cf6107a6565b6040516100dc919061172c565b60405180910390f35b6100ff60048036036100fa9190810190611289565b6107cf565b60405161010c91906117e6565b60405180910390f35b61011d610c56565b60405161012a9190611769565b60405180910390f35b61014d600480360361014891908101906112b2565b610cb4565b005b61016960048036036101649190810190611289565b610f4c565b005b6060600060018054905090506060816040519080825280602002602001820160405280156101b357816020015b6101a06110d5565b8152602001906001900390816101985790505b50905060008090505b82811015610697576101cc611128565b60026000600184815481106101dd57fe5b9060005260206000200160009054906101000a900473ffffffffffffffffffffffffffffffffffffffff1673ffffffffffffffffffffffffffffffffffffffff1673ffffffffffffffffffffffffffffffffffffffff1681526020019081526020016000206040518060e00160405290816000820160009054906101000a900473ffffffffffffffffffffffffffffffffffffffff1673ffffffffffffffffffffffffffffffffffffffff1673ffffffffffffffffffffffffffffffffffffffff168152602001600182018054600181600116156101000203166002900480601f01602080910402602001604051908101604052809291908181526020018280546001816001161561010002031660029004801561033c5780601f106103115761010080835404028352916020019161033c565b820191906000526020600020905b81548152906001019060200180831161031f57829003601f168201915b50505050508152602001600282018054600181600116156101000203166002900480601f0160208091040260200160405190810160405280929190818152602001828054600181600116156101000203166002900480156103de5780601f106103b3576101008083540402835291602001916103de565b820191906000526020600020905b8154815290600101906020018083116103c157829003601f168201915b50505050508152602001600382018054600181600116156101000203166002900480601f0160208091040260200160405190810160405280929190818152602001828054600181600116156101000203166002900480156104805780601f1061045557610100808354040283529160200191610480565b820191906000526020600020905b81548152906001019060200180831161046357829003601f168201915b50505050508152602001600482018054600181600116156101000203166002900480601f0160208091040260200160405190810160405280929190818152602001828054600181600116156101000203166002900480156105225780601f106104f757610100808354040283529160200191610522565b820191906000526020600020905b81548152906001019060200180831161050557829003601f168201915b50505050508152602001600582018054600181600116156101000203166002900480601f0160208091040260200160405190810160405280929190818152602001828054600181600116156101000203166002900480156105c45780601f10610599576101008083540402835291602001916105c4565b820191906000526020600020905b8154815290600101906020018083116105a757829003601f168201915b50505050508152602001600682018054600181600116156101000203166002900480601f0160208091040260200160405190810160405280929190818152602001828054600181600116156101000203166002900480156106665780601f1061063b57610100808354040283529160200191610666565b820191906000526020600020905b81548152906001019060200180831161064957829003601f168201915b50505050508152505090508083838151811061067e57fe5b60200260200101819052505080806001019150506101bc565b50809250505090565b6106a8610c56565b6106e7576040517f08c379a00000000000000000000000000000000000000000000000000000000081526004016106de906117c6565b60405180910390fd5b600073ffffffffffffffffffffffffffffffffffffffff166000809054906101000a900473ffffffffffffffffffffffffffffffffffffffff1673ffffffffffffffffffffffffffffffffffffffff167f8be0079c531659141344cd1fd0a4f28419497f9722a3daafe3b4186f6b6457e060405160405180910390a360008060006101000a81548173ffffffffffffffffffffffffffffffffffffffff021916908373ffffffffffffffffffffffffffffffffffffffff160217905550565b60008060009054906101000a900473ffffffffffffffffffffffffffffffffffffffff16905090565b6107d7611128565b6107df611128565b600260008473ffffffffffffffffffffffffffffffffffffffff1673ffffffffffffffffffffffffffffffffffffffff1681526020019081526020016000206040518060e00160405290816000820160009054906101000a900473ffffffffffffffffffffffffffffffffffffffff1673ffffffffffffffffffffffffffffffffffffffff1673ffffffffffffffffffffffffffffffffffffffff168152602001600182018054600181600116156101000203166002900480601f0160208091040260200160405190810160405280929190818152602001828054600181600116156101000203166002900480156109185780601f106108ed57610100808354040283529160200191610918565b820191906000526020600020905b8154815290600101906020018083116108fb57829003601f168201915b50505050508152602001600282018054600181600116156101000203166002900480601f0160208091040260200160405190810160405280929190818152602001828054600181600116156101000203166002900480156109ba5780601f1061098f576101008083540402835291602001916109ba565b820191906000526020600020905b81548152906001019060200180831161099d57829003601f168201915b50505050508152602001600382018054600181600116156101000203166002900480601f016020809104026020016040519081016040528092919081815260200182805460018160011615610100020316600290048015610a5c5780601f10610a3157610100808354040283529160200191610a5c565b820191906000526020600020905b815481529060010190602001808311610a3f57829003601f168201915b50505050508152602001600482018054600181600116156101000203166002900480601f016020809104026020016040519081016040528092919081815260200182805460018160011615610100020316600290048015610afe5780601f10610ad357610100808354040283529160200191610afe565b820191906000526020600020905b815481529060010190602001808311610ae157829003601f168201915b50505050508152602001600582018054600181600116156101000203166002900480601f016020809104026020016040519081016040528092919081815260200182805460018160011615610100020316600290048015610ba05780601f10610b7557610100808354040283529160200191610ba0565b820191906000526020600020905b815481529060010190602001808311610b8357829003601f168201915b50505050508152602001600682018054600181600116156101000203166002900480601f016020809104026020016040519081016040528092919081815260200182805460018160011615610100020316600290048015610c425780601f10610c1757610100808354040283529160200191610c42565b820191906000526020600020905b815481529060010190602001808311610c2557829003601f168201915b505050505081525050905080915050919050565b60008060009054906101000a900473ffffffffffffffffffffffffffffffffffffffff1673ffffffffffffffffffffffffffffffffffffffff16610c98610f9f565b73ffffffffffffffffffffffffffffffffffffffff1614905090565b610cbc610c56565b610cfb576040517f08c379a0000000000000000000000000000000000000000000000000000000008152600401610cf2906117c6565b60405180910390fd5b610d03611128565b6040518060e001604052808973ffffffffffffffffffffffffffffffffffffffff16815260200188815260200187815260200186815260200185815260200184815260200183815250905060018890806001815401808255809150509060018203906000526020600020016000909192909190916101000a81548173ffffffffffffffffffffffffffffffffffffffff021916908373ffffffffffffffffffffffffffffffffffffffff1602179055505080600260008a73ffffffffffffffffffffffffffffffffffffffff1673ffffffffffffffffffffffffffffffffffffffff16815260200190815260200160002060008201518160000160006101000a81548173ffffffffffffffffffffffffffffffffffffffff021916908373ffffffffffffffffffffffffffffffffffffffff1602179055506020820151816001019080519060200190610e5792919061117b565b506040820151816002019080519060200190610e7492919061117b565b506060820151816003019080519060200190610e9192919061117b565b506080820151816004019080519060200190610eae92919061117b565b5060a0820151816005019080519060200190610ecb92919061117b565b5060c0820151816006019080519060200190610ee892919061117b565b50905050806000015173ffffffffffffffffffffffffffffffffffffffff167f7e4811077e82534a89b4097a5dccea33093b67f17a23c79a0a225184ad4e22a48260200151604051610f3a9190611784565b60405180910390a25050505050505050565b610f54610c56565b610f93576040517f08c379a0000000000000000000000000000000000000000000000000000000008152600401610f8a906117c6565b60405180910390fd5b610f9c81610fa7565b50565b600033905090565b600073ffffffffffffffffffffffffffffffffffffffff168173ffffffffffffffffffffffffffffffffffffffff161415611017576040517f08c379a000000000000000000000000000000000000000000000000000000000815260040161100e906117a6565b60405180910390fd5b8073ffffffffffffffffffffffffffffffffffffffff166000809054906101000a900473ffffffffffffffffffffffffffffffffffffffff1673ffffffffffffffffffffffffffffffffffffffff167f8be0079c531659141344cd1fd0a4f28419497f9722a3daafe3b4186f6b6457e060405160405180910390a3806000806101000a81548173ffffffffffffffffffffffffffffffffffffffff021916908373ffffffffffffffffffffffffffffffffffffffff16021790555050565b6040518060e00160405280600073ffffffffffffffffffffffffffffffffffffffff1681526020016060815260200160608152602001606081526020016060815260200160608152602001606081525090565b6040518060e00160405280600073ffffffffffffffffffffffffffffffffffffffff1681526020016060815260200160608152602001606081526020016060815260200160608152602001606081525090565b828054600181600116156101000203166002900490600052602060002090601f016020900481019282601f106111bc57805160ff19168380011785556111ea565b828001600101855582156111ea579182015b828111156111e95782518255916020019190600101906111ce565b5b5090506111f791906111fb565b5090565b61121d91905b80821115611219576000816000905550600101611201565b5090565b90565b60008135905061122f81611958565b92915050565b600082601f83011261124657600080fd5b813561125961125482611835565b611808565b9150808252602083016020830185838301111561127557600080fd5b611280838284611905565b50505092915050565b60006020828403121561129b57600080fd5b60006112a984828501611220565b91505092915050565b600080600080600080600060e0888a0312156112cd57600080fd5b60006112db8a828b01611220565b975050602088013567ffffffffffffffff8111156112f857600080fd5b6113048a828b01611235565b965050604088013567ffffffffffffffff81111561132157600080fd5b61132d8a828b01611235565b955050606088013567ffffffffffffffff81111561134a57600080fd5b6113568a828b01611235565b945050608088013567ffffffffffffffff81111561137357600080fd5b61137f8a828b01611235565b93505060a088013567ffffffffffffffff81111561139c57600080fd5b6113a88a828b01611235565b92505060c088013567ffffffffffffffff8111156113c557600080fd5b6113d18a828b01611235565b91505092959891949750929550565b60006113ec838361166d565b905092915050565b6113fd816118c7565b82525050565b61140c816118c7565b82525050565b600061141d82611871565b6114278185611894565b93508360208202850161143985611861565b8060005b85811015611475578484038952815161145685826113e0565b945061146183611887565b925060208a0199505060018101905061143d565b50829750879550505050505092915050565b611490816118d9565b82525050565b60006114a18261187c565b6114ab81856118a5565b93506114bb818560208601611914565b6114c481611947565b840191505092915050565b60006114da8261187c565b6114e481856118b6565b93506114f4818560208601611914565b6114fd81611947565b840191505092915050565b60006115156026836118b6565b91507f4f776e61626c653a206e6577206f776e657220697320746865207a65726f206160008301527f64647265737300000000000000000000000000000000000000000000000000006020830152604082019050919050565b600061157b6020836118b6565b91507f4f776e61626c653a2063616c6c6572206973206e6f7420746865206f776e65726000830152602082019050919050565b600060e0830160008301516115c660008601826113f4565b50602083015184820360208601526115de8282611496565b915050604083015184820360408601526115f88282611496565b915050606083015184820360608601526116128282611496565b9150506080830151848203608086015261162c8282611496565b91505060a083015184820360a08601526116468282611496565b91505060c083015184820360c08601526116608282611496565b9150508091505092915050565b600060e08301600083015161168560008601826113f4565b506020830151848203602086015261169d8282611496565b915050604083015184820360408601526116b78282611496565b915050606083015184820360608601526116d18282611496565b915050608083015184820360808601526116eb8282611496565b91505060a083015184820360a08601526117058282611496565b91505060c083015184820360c086015261171f8282611496565b9150508091505092915050565b60006020820190506117416000830184611403565b92915050565b600060208201905081810360008301526117618184611412565b905092915050565b600060208201905061177e6000830184611487565b92915050565b6000602082019050818103600083015261179e81846114cf565b905092915050565b600060208201905081810360008301526117bf81611508565b9050919050565b600060208201905081810360008301526117df8161156e565b9050919050565b6000602082019050818103600083015261180081846115ae565b905092915050565b6000604051905081810181811067ffffffffffffffff8211171561182b57600080fd5b8060405250919050565b600067ffffffffffffffff82111561184c57600080fd5b601f19601f8301169050602081019050919050565b6000819050602082019050919050565b600081519050919050565b600081519050919050565b6000602082019050919050565b600082825260208201905092915050565b600082825260208201905092915050565b600082825260208201905092915050565b60006118d2826118e5565b9050919050565b60008115159050919050565b600073ffffffffffffffffffffffffffffffffffffffff82169050919050565b82818337600083830152505050565b60005b83811015611932578082015181840152602081019050611917565b83811115611941576000848401525b50505050565b6000601f19601f8301169050919050565b611961816118c7565b811461196c57600080fd5b5056fea365627a7a72315820472fddd12a673a8c1142e5dd7156049813b6bb210a5b88d0188a0ce5fb2561e26c6578706572696d656e74616cf564736f6c63430005100040",
  "source": "pragma solidity ^0.5.16;\r\npragma experimental ABIEncoderV2;\r\n\r\nimport \"@openzeppelin/contracts/ownership/Ownable.sol\";\r\n\r\n\r\ncontract TargetContract is Ownable {\r\n    address[] targetAddressList;\r\n    mapping (address => Target) targetMap;\r\n\r\n    event AddTarget(address indexed addr, string name);\r\n\r\n    struct Target {\r\n        address addr;//\r\n        string name;//\r\n        string thumbnail;// URL\r\n        string gender;//(,)\r\n        string birthday;//(yyyy.MM.dd)\r\n        string country;//\r\n        string contents;//  URL\r\n    }\r\n\r\n    function addTarget(\r\n        address _addr,\r\n        string memory _name,\r\n        string memory _thumbnail,\r\n        string memory _gender,\r\n        string memory _birthday,\r\n        string memory _country,\r\n        string memory _contents\r\n    ) public onlyOwner() {\r\n\r\n        Target memory t = Target(_addr, _name, _thumbnail, _gender, _birthday, _country, _contents);\r\n\r\n        targetAddressList.push(_addr);\r\n        targetMap[_addr] = t;\r\n\r\n        emit AddTarget(t.addr, t.name);\r\n    }\r\n\r\n    function getTarget(address _targetAddress) public view returns (Target memory) {\r\n        Target memory t = targetMap[_targetAddress];\r\n        return t;\r\n    }\r\n\r\n    function getTargetList() public view returns (Target[] memory) {\r\n        uint arrayLength = targetAddressList.length;\r\n        Target[] memory targetList = new Target[](arrayLength);\r\n\r\n        for (uint i = 0; i < arrayLength; i++) {\r\n            Target memory t=targetMap[targetAddressList[i]];\r\n            targetList[i] = t;\r\n        }\r\n        return targetList;\r\n    }\r\n}\r\n",
  "sourcePath": "C:\\intellij_workspace\\donate\\solidity\\contracts\\TargetContract.sol",
  "compiler": {
    "name": "solc",
    "version": "0.5.16+commit.9c3226ce.Emscripten.clang"
  },
  "schemaVersion": "3.0.23",
  "updatedAt": "2020-04-16T10:42:42.306Z",
  "devdoc": {
    "methods": {
      "isOwner()": {
        "details": "Returns true if the caller is the current owner."
      },
      "owner()": {
        "details": "Returns the address of the current owner."
      },
      "renounceOwnership()": {
        "details": "Leaves the contract without owner. It will not be possible to call `onlyOwner` functions anymore. Can only be called by the current owner.      * NOTE: Renouncing ownership will leave the contract without an owner, thereby removing any functionality that is only available to the owner."
      },
      "transferOwnership(address)": {
        "details": "Transfers ownership of the contract to a new account (`newOwner`). Can only be called by the current owner."
      }
    }
  },
  "userdoc": {
    "methods": {}
  }
}